:020000040800F2
:100000001006002049010008751F0008D51B0008D4
:10001000711F0008E1010008D12400080000000061
:10002000000000000000000000000000A51F000804
:10003000E501000800000000791F0008A71F000864
:100040006301000863010008630100086301000800
:1000500063010008630100086301000863010008F0
:1000600063010008630100086301000863010008E0
:1000700063010008630100086301000863010008D0
:1000800063010008630100086301000863010008C0
:1000900063010008630100086301000863010008B0
:1000A00063010008630100086301000863010008A0
:1000B0006301000863010008630100086301000890
:1000C0006301000863010008630100086301000880
:1000D00063010008A1240008B1240008C12400081D
:1000E0006301000863010008630100086301000860
:1000F0006301000863010008630100086301000850
:10010000630100086301000863010008630100083F
:10011000C5200008630100086301000819200008D9
:10012000630100086301000863010008630100081F
:10013000DFF810D000F042F800480047012800081E
:10014000AFF30080100600200648804706480047AD
:10015000FEE7FEE7FEE7FEE7FEE7FEE7FEE7FEE777
:10016000FEE7FEE71520000831010008D2B201E0E9
:1001700000F8012B491EFBD270470022F6E710B5AC
:1001800013460A4604461946FFF7F0FF204610BD05
:1001900030B50B46014600202022012409E021FA57
:1001A00002F59D4205D303FA02F5491B04FA02F554
:1001B0002844151EA2F10102F1DC30BD064C074DAA
:1001C00006E0E06840F0010394E807009847103427
:1001D000AC42F6D3FFF7B0FFC02A0008E02A0008BF
:1001E00000BFFEE7704772B600BFFEE710B50124FE
:1001F000074800780749887000BF05E00549085D99
:1002000002F074F9601CC4B2032CF7DD10BD0000CD
:100210000C0000204A0000200146002291F8210035
:10022000022808D00420886300BF002081F8200045
:1002300000BF012070470868006820F00E000B68BE
:1002400018600868006820F001000B68186091F8D9
:10025000403001209840CB6B5860012081F821008C
:1002600000BF002081F8200000BF1046E2E7000038
:1002700070B50446002594F82100022803D004201C
:10028000A0630125C1E02068006820F00E0021680D
:1002900008602068006820F00100216808605C495F
:1002A0002068884252D95A4978392068884201D159
:1002B000012047E0564964392068884201D1102066
:1002C00040E0534950392068884201D1801539E017
:1002D0004F493C392068884201D1801432E04C49B2
:1002E00028392068884202D14FF480302AE04849FA
:1002F00014392068884202D14FF4801022E044492A
:100300002068884201D140041CE0424920688842AC
:1003100001D1012016E03F4914312068884201D103
:1003200010200FE03B4928312068884201D1801518
:1003300008E038493C312068884201D1801401E04E
:100340004FF480303349091F086051E03049783953
:100350002068884201D1012047E02D496439206896
:10036000884201D1102040E0294950392068884254
:1003700001D1801539E026493C392068884201D1F5
:10038000801432E0224928392068884202D14FF493
:1003900080302AE01E4914392068884202D14FF487
:1003A000801022E01A492068884201D140041CE0F4
:1003B00018492068884201D1012016E015491431FE
:1003C0002068884201D110200FE0124928312068AE
:1003D000884201D1801508E00E493C3120688842EE
:1003E00001D1801401E04FF4803009498039486020
:1003F000012084F8210000BF002084F8200000BF05
:10040000606B10B12046616B8847284670BD0000C4
:1004100080000240080402402DE9F847024600230C
:100420009C467BE14FF0010808FA03F4D1F8008004
:1004300008EA0400A0427DD1DFF8F4A2D1F80480DC
:10044000A8EB0A09D0453AD014DCB8F1030F50D01C
:1004500009DCB8F1000F31D0B8F1010F1CD0B8F1B0
:10046000020F49D120E0B8F1110F18D0B8F1120FE6
:1004700042D11EE0B9F5881F25D006DCB9F5803FD2
:1004800020D0B9F5801F37D11AE0B9F5001F18D078
:10049000B9F5041F30D117E0D1F80CC02DE0D1F828
:1004A0000C8008F1040C28E0D1F80C8008F1080C4D
:1004B00023E0D1F80C8008F10C0C1EE000BF00BF57
:1004C00000BF00BF00BF00BFD1F80880B8F1000F27
:1004D00002D14FF0040C0BE0D1F80880B8F1010F05
:1004E00003D14FF0080C146102E04FF0080C546186
:1004F00003E04FF0000C00E000BF00BFFF2801D870
:10050000904601E002F104084646FF2802D84FEA6F
:10051000830803E0A3F108084FEA88084746D6F8A5
:1005200000804FF00F0909FA07F928EA09080CFAC8
:1005300007F900E07AE048EA0908C6F80080D1F837
:10054000048008F08058B8F1805F6FD100BFDFF8F9
:10055000E481D8F8188048F00108DFF8D891C9F88C
:100560001880C846D8F8188008F00108CDF8008037
:1005700000BF00BF4FEAB9384FEA930958F8295035
:100580004FEA83784FEA18794FF00F0808FA09F814
:1005900025EA0805DFF8A081424502D14FF00008A6
:1005A00024E0DFF89881424502D14FF001081DE0B8
:1005B000DFF88C81424502D14FF0020816E0DFF8E7
:1005C0008481424502D14FF003080FE0DFF87881C3
:1005D000424502D14FF0040808E0DFF8708142453F
:1005E00002D14FF0050801E04FF006084FEA837989
:1005F0004FEA197908FA09F848EA0505DFF8508149
:100600004FEA930948F82950D1F8048008F480187B
:10061000B8F5801F0BD1DFF83C81D8F8008048EA9C
:100620000008DFF83091C9F800800AE075E0DFF8D3
:100630002481D8F8008028EA0008DFF81891C9F86A
:100640000080D1F8048008F40018B8F5001F0ED11E
:10065000DFF8008108F10408D8F8008048EA0008B3
:10066000DFF8F09009F10409C9F800800DE0DFF827
:10067000E48008F10408D8F8008028EA0008DFF8D0
:10068000D49009F10409C9F80080D1F8048008F475
:100690000038B8F5003F0ED1DFF8B880A8F10408A3
:1006A000D8F8008048EA0008DFF8A890A9F104090A
:1006B000C9F800800DE0DFF89C80A8F10408D8F8A4
:1006C000008028EA0008DFF88C90A9F10409C9F835
:1006D0000080D1F8048008F48038B8F5803F0ED14E
:1006E000DFF87080A8F10808D8F8008048EA000810
:1006F000DFF86090A9F10809C9F800800DE0DFF883
:100700005480A8F10808D8F8008028EA0008DFF82B
:100710004490A9F10809C9F800805B1CD1F8008059
:1007200028FA03F8B8F1000F7FF47CAEBDE8F88733
:10073000000011100010024000080140000C0140B0
:10074000001001400014014000180140001C01404D
:1007500008000140080401400AB1016101E00B04F6
:1007600003617047014800687047000010000020D6
:100770000348006803490978084401490860704744
:10078000100000201800002010B50848006840F054
:10079000100006490860032000F0A8F80F2000F0C0
:1007A00007F800F02BF8002010BD000000200240E8
:1007B00070B504460E4800784FF47A71B1FBF0F042
:1007C0000C490968B1FBF0F5284600F00DFC08B1B2
:1007D000012070BD102C07D200222146501E00F0CF
:1007E00047F80548046001E00120F2E70020F0E747
:1007F000180000201C0000201400002008B500BFD5
:100800001148806940F001000F49886108468069FD
:1008100000F00100009000BF00BF00BF0846C069A3
:1008200040F08050C8610846C06900F080500090D8
:1008300000BF00BF00BF0549486820F0E06040F0FD
:100840000070486000BF08BD001002400000014079
:1008500001460846002809DB00F01F0301229A40E8
:1008600043099B0003F1E023C3F8002100BF704758
:100870002DE9F05F80460D461646002701F056FE32
:10088000074639462A46334601F00700C0F1070AF9
:10089000BAF1040F02D94FF0040A01E0C0F1070ACF
:1008A000D14600F1040ABAF1070F02D24FF0000A54
:1008B00001E0A0F1030AD4464FF0010A0AFA09FA4E
:1008C000AAF1010A0AEA020A0AFA0CFA4FF0010B2D
:1008D0000BFA0CFBABF1010B0BEA030B4AEA0B041E
:1008E0002146404601F02AFEBDE8F09F00BF00F01F
:1008F0000702064B19684FF6FF031940044B0B43E0
:1009000043EA0221014B196000BF70470CED00E083
:100910000000FA0570B504460D460CB9012070BD03
:100920005A48006800F00700A8420ED257480068F5
:1009300020F007002843554908600846006800F089
:100940000700A84201D00120E9E7207800F002006A
:1009500002281DD1207800F00400042805D14C485D
:10096000406840F4E0604A494860207800F00800A0
:10097000082805D14648406840F460504449486022
:100980004348406820F0F000A168084340494860AF
:10099000207800F0010078B36068012806D13C4857
:1009A000006800F4003090B90120B8E760680228C0
:1009B00006D13748006800F0007040B90120AEE76A
:1009C0003348006800F0020008B90120A7E730486A
:1009D000406820F00300616808432D494860FFF734
:1009E000C1FE064609E0FFF7BDFE801B41F28831DB
:1009F000884202D9032092E707E02548406800F0CA
:100A00000C006168B0EB810FEDD12048006800F068
:100A10000700A8420ED91D48006820F007002843AF
:100A20001A4908600846006800F00700A84201D093
:100A3000012074E7207800F00400042807D114484E
:100A4000406820F4E060E16808431149486020787C
:100A500000F00800082808D10D48406820F46050D4
:100A6000216940EAC1000A49486000F03FF808499E
:100A70004968C1F30311074A515CC8400649086040
:100A800006480068FFF794FE002048E70020024077
:100A900000100240A62A00081C00002014000020BC
:100AA00001480068704700001C00002000B5FFF7F7
:100AB000F7FF04494968C1F30221034A515CC84069
:100AC00000BD000000100240B62A000800B5FFF784
:100AD000E7FF04494968C1F3C221034A515CC84099
:100AE00000BD000000100240B62A000870B50021C9
:100AF0000022002400230020134D696801F00C053A
:100B0000F5B1042D02D0082D19D101E00F4819E0EC
:100B10000F4DC1F38346AB5D01F4803555B10A4DED
:100B20006D68C5F340450B4E725D084D5D43B5FBE6
:100B3000F2F402E0084D03FB05F4204602E000BF9A
:100B4000024800BF00BF70BD0010024000127A00D2
:100B5000942A0008A42A000800093D00F8B50446BC
:100B60000CB90120F8BD207800F00100002878D0F1
:100B7000F848406800F00C0004280CD0F5484068A4
:100B800000F00C00082811D1F248406800F48030D1
:100B9000B0F5803F0AD1EF48006800F4003000282B
:100BA0005FD0606800285CD10120DBE700BF60688F
:100BB000B0F5803F06D1E748006840F48030E54951
:100BC000086028E0606858B9E248006820F4803086
:100BD000E04908600846006820F4802008601AE0B8
:100BE0006068B0F5A02F0BD1DA48006840F480208F
:100BF000D84908600846006840F4803008600AE080
:100C0000D448006820F48030D24908600846006863
:100C100020F48020086000BF606888B1FFF7A2FD63
:100C2000054606E0FFF79EFD401B642801D903201E
:100C300098E7C848006800F400300028F2D010E0BF
:100C4000FFF790FD054606E0FFF78CFD401B64288A
:100C500001D9032086E7BF48006800F4003000286F
:100C6000F2D1207800F00200022857D1B94840683C
:100C700000F00C0050B1B748406800F00C000828A4
:100C800018D1B448406800F4803098B9B148006881
:100C900000F0020020B12069012801D0012061E7A5
:100CA000AC48006820F0F800616940EAC100A94939
:100CB000086033E02069E8B10120A7490860FFF728
:100CC00051FD054606E0FFF74DFD401B022801D906
:100CD000032047E79F48006800F002000028F2D098
:100CE0009C48006820F0F800616940EAC100994919
:100CF000086013E0002098490860FFF733FD0546BF
:100D000006E0FFF72FFD401B022801D9032029E749
:100D10009048006800F002000028F2D1207800F02E
:100D2000080008282DD1A069B8B101208B490860BE
:100D3000FFF718FD054606E0FFF714FD401B0228EB
:100D400001D903200EE78348406A00F00200002822
:100D5000F2D0012001F012F913E000207F49086071
:100D6000FFF700FD054606E0FFF7FCFC401B0228EC
:100D700001D90320F6E67748406A00F00200002817
:100D8000F2D1207800F00400042873D100277148C4
:100D9000C06900F0805070B900BF6E48C06940F073
:100DA00080506C49C8610846C06900F080500090CE
:100DB00000BF00BF01276A48006800F48070B0B926
:100DC0006748006840F4807065490860FFF7CAFC16
:100DD000054606E0FFF7C6FC401B642801D9032046
:100DE000C0E65F48006800F480700028F2D000BFC1
:100DF000E068012806D15748006A40F001005549D3
:100E0000086227E0E06858B95248006A20F0010003
:100E1000504908620846006A20F00400086219E0A0
:100E2000E06805280BD14B48006A40F004004949AE
:100E300008620846006A40F0010008620AE045487E
:100E4000006A20F00100434908620846006A20F069
:100E50000400086200BFE068A0B1FFF783FC05460C
:100E600009E0FFF77FFC401B41F28831884202D93C
:100E7000032077E622E03748006A00F002000028ED
:100E8000EFD012E0FFF76EFC054608E0FFF76AFCC2
:100E9000401B41F28831884201D9032062E62D4887
:100EA000006A00F002000028F0D1012F05D1294886
:100EB000C06920F080502749C86100BFE069C8B30D
:100EC0002448406800F00C00082860D0E06902283F
:100ED00048D1002020490866FFF744FC054606E09B
:100EE000FFF740FC401B022801D903203AE61948CD
:100EF000006800F000700028F2D1206AB0F5803F51
:100F000007D11448406820F40030A1680843114913
:100F10004860D4E9080108430E49496821F4741176
:100F200008430C49486001200B490866FFF71AFC8A
:100F3000054607E03DE0FFF715FC401B022801D9FC
:100F400003200FE60348006800F000700028F2D08C
:100F50002FE00000001002400000424280044242A4
:100F600000700040002014490866FFF7FBFB0546AF
:100F700006E0FFF7F7FB401B022801D90320F1E54B
:100F80000E48006800F000700028F2D111E0E0691E
:100F9000012800D1E6E50948466806F48031206A58
:100FA000814204D106F47011606A814201D00120AF
:100FB000D8E50020D6E500000000424200100240C3
:100FC000042808D14FF0E021096941F004014FF0F5
:100FD000E022116107E04FF0E021096921F00401EE
:100FE0004FF0E0221161704770B504462546681E37
:100FF000B0F1807F01D301200FE0681E4FF0E021A7
:1010000048610F214FF0FF3001F098FA00204FF0B7
:10101000E021886107200861002070BD704770479B
:1010200030B502460B4600BF92F83C00012801D1C2
:10103000022030BD012082F83C0000BF022082F86F
:101040003D00106844681068816824F070041868D6
:10105000044310684460144D1068A84213D0134D27
:101060001068A8420FD01068B0F1804F0BD0104D1F
:101070001068A84207D00F4D1068A84203D00E4D4B
:101080001068A84205D121F080015868014310681A
:101090008160012082F83D0000BF002082F83C0002
:1010A00000BF00BFC5E70000002C01400034014034
:1010B0000004004000080040000C004010B5044649
:1010C0000CB9012010BD94F83D0028B9002084F827
:1010D0003C00204600F026F8022084F83D00211D47
:1010E000206800F0A1FF012084F8460000BF84F8CA
:1010F0003E0001213F20015540200155412001556E
:1011000000BF00BF012084F8420043200155442065
:1011100001554520015500BF012084F83D00002005
:10112000D0E7000038B504460D492068884215D143
:1011300000BF0C48C06940F020000A49C861084659
:10114000C06900F02000009000BF00BF0022012114
:101150003720FFF78DFB3720FFF77AFB38BD000003
:101160000014004000100240014691F83D000128A3
:1011700001D001207047022081F83D000868C06856
:1011800040F001000B68D860164B0868984213D0F5
:10119000154B086898420FD00868B0F1804F0BD00B
:1011A000124B0868984207D0114B0868984203D048
:1011B000104B086898420CD10868806800F007025C
:1011C000062A0CD00868006840F001000B6818601F
:1011D00005E00868006840F001000B681860002016
:1011E000C8E70000002C014000340140000400402A
:1011F00000080040000C0040704710B5044620680D
:101200000069C0F34000D8B12068C068C0F3400056
:10121000B0B16FF0020021680861012020772068DA
:10122000806900F0030018B12046FFF7E5FF05E0F4
:10123000204600F0ADF8204600F0ABF80020207703
:1012400020680069C0F38000D8B12068C068C0F38E
:101250008000B0B16FF0040021680861022020779F
:101260002068806900F4407018B12046FFF7C4FF81
:1012700005E0204600F08CF8204600F08AF80020B7
:10128000207720680069C0F3C000D8B12068C0682A
:10129000C0F3C000B0B16FF00800216808610420FD
:1012A00020772068C06900F0030018B12046FFF7DE
:1012B000A3FF05E0204600F06BF8204600F069F837
:1012C0000020207720680069C0F30010D8B12068A2
:1012D000C068C0F30010B0B16FF010002168086161
:1012E000082020772068C06900F4407018B12046BB
:1012F000FFF782FF05E0204600F04AF8204600F0A4
:1013000048F8002020772068006900F0010058B1FB
:101310002068C06800F0010030B16FF00100216862
:101320000861204600F036F820680069C0F3C0105C
:1013300058B12068C068C0F3C01030B16FF08000B1
:10134000216808612046FFF769FE20680069C0F344
:10135000801058B12068C068C0F3801030B16FF0C1
:10136000400021680861204600F092F8206800697A
:10137000C0F3401058B12068C068C0F3401030B1CD
:101380006FF02000216808612046FFF748FE10BD7D
:101390007047704710B504463648844204D1364839
:1013A0000078401C34490870344800783449097882
:1013B000884225D031480078062807DD2F4800787C
:1013C0000C281DDD2D480078122819DC0122114659
:1013D0002C48FFF7C1F92C480078401C2A490870B6
:1013E00008460078192843DB0020087000220121FC
:1013F0002448FFF7B1F9214800782149087037E007
:101400001E4800781E490978884226D01B4800787B
:10141000062803DD194800780C2803DD17480078FA
:1014200012281ADD012211021848FFF795F9164813
:101430000078401C1449087008460078192817DB0A
:101440000020087000224FF480711048FFF784F9E3
:101450000A4800780A4908700AE000220121094878
:10146000FFF77AF900224FF480710848FFF774F90A
:1014700010BD0000A8000020010000200E00002088
:101480000F000020001001400D000020000C014062
:1014900070477047704700002DE9F84F04462068F8
:1014A00005682068C668206847694FF00009CA4689
:1014B00005F00F09B9F1000F0AD105F0200038B18D
:1014C00006F0200020B1204600F054FEBDE8F88F61
:1014D000B9F1000F7BD007F0010018B906F4907045
:1014E000002874D005F0010030B106F4807018B106
:1014F000606C40F00100606405F0040030B107F05A
:10150000010018B1606C40F00200606405F0020058
:1015100030B107F0010018B1606C40F00400606465
:1015200005F0080048B106F0200010B907F00100EE
:1015300018B1606C40F008006064606C002845D011
:1015400005F0200028B106F0200010B1204600F080
:1015500011FE20684069C0F3801A606C00F008003A
:1015600010B9BAF1000F2CD0204600F0BDFD206864
:10157000406900F0400000B300BF00BF2168143193
:1015800051E8001F21F040002168143141E80002B9
:10159000002AF3D100BFE06B50B17748E16B48639C
:1015A000E06BFEF765FE88B1E06B416B88470DE0AC
:1015B0002046FFF76FFF09E009E02046FFF76AFFCA
:1015C00004E02046FFF766FF002060647EE7206BA2
:1015D000012877D105F01000002873D006F0100024
:1015E0000028FAD000BF002000902068006800901A
:1015F00020684068009000BF00BF2068406900F08C
:10160000400000285FD0E06B006840681FFA80F857
:10161000B8F1000F55D0A08D404552DDA4F82E80C2
:10162000E06B8069202843D000BF00BF21680C31E7
:1016300051E8001F21F4807021680C3141E800025C
:10164000002AF3D100BF00BF00BF2168143151E868
:10165000001F21F001002168143141E80002002A36
:10166000F3D100BF00BF00BF2168143151E8001F53
:1016700021F040002168143141E80002002AF3D132
:1016800000BF202084F842000020206300BF00BF7C
:1016900021680C3151E8001F21F0100021680C3145
:1016A00041E80002002AF3D100BFE06BFEF7B4FD71
:1016B00002206063A08DE28D801A81B22046FFF780
:1016C000E8FE03E742E0A08DE18D401A1FFA80F8A2
:1016D000E08DD0B3B8F1000F37D000BF00BF216854
:1016E0000C3151E8001F21F4907021680C3141E861
:1016F0000002002AF3D100BF00BF00BF21681431EF
:1017000051E8001F21F001002168143141E8000276
:10171000002AF3D100BF202084F84200002020637B
:1017200000BF00BF21680C3151E8001F21F01000FC
:1017300021680C3141E80002002AF3D100BF0220E9
:10174000606341462046FFF7A4FEBFE605F0800037
:1017500030B106F0800018B1204600F027FEB5E653
:1017600005F0400030B106F0400018B1204600F00E
:10177000F1FCABE600BFA9E6D520000810B5044691
:101780000CB9012010BDA06900B100E000BF94F8C1
:10179000410028B9002084F84000204600F02AF8D3
:1017A000242084F841002068C06820F4005021689B
:1017B000C860204600F05CFD2068006920F490407D
:1017C000216808612068406920F02A00216848618A
:1017D0002068C06840F400502168C8600020606440
:1017E000202084F8410084F842000020606300BF9C
:1017F000C8E7000010B586B00446002002900390B0
:101800000490059077492068884237D100BF764818
:10181000C06940F400207449C8610846C06900F4FA
:101820000020019000BF00BF00BF0846806940F063
:10183000100088610846806900F01000019000BF28
:1018400000BF08150290022003900320059002A912
:101850006648FEF7E1FD4FF400600290002003901F
:10186000049002A96148FEF7D7FD002211463420FA
:10187000FEF7FEFF3420FEF7EBFFB1E05C49206885
:10188000884237D100BF5848806940F480405649AB
:1018900088610846806900F48040019000BF00BF65
:1018A00000BF0846806940F00400886108468069EE
:1018B00000F00400019000BF00BF48150290022014
:1018C00003900320059002A94A48FEF7A5FD4FF4B6
:1018D0008060029000200390049002A94548FEF722
:1018E0009BFD002211462520FEF7C2FF2520FEF7B2
:1018F000AFFF75E040492068884236D100BF3A48C2
:10190000C06940F400303849C8610846C06900F435
:101910000030019000BF00BF00BF0846806940F062
:10192000040088610846806900F00400019000BF4F
:1019300000BF04200290022003900320059002A91A
:101940002C48FEF769FD08200290002003900490C7
:1019500002A92848FEF760FD002211462620FEF766
:1019600087FF2620FEF774FF3AE02449206888426A
:1019700036D100BF1C48C06940F480201A49C861B4
:101980000846C06900F48020019000BF00BF00BF7E
:101990000846806940F0080088610846806900F0C8
:1019A0000800019000BF00BF0815029002200390BC
:1019B0000320059002A91248FEF72EFD4FF40060A7
:1019C000029000200390049002A90D48FEF724FD28
:1019D000002211462720FEF74BFF2720FEF738FF95
:1019E00006B010BD004C0040001002400010014045
:1019F0000038014000080140004400400048004019
:101A0000000C014070B504460D46164694F842009D
:101A100020280BD105B10EB9012070BD0020206334
:101A200032462946204600F0A1FCF6E70220F4E702
:101A30002DE9F04104462D492068884209D12C48FF
:101A40000578284600F032F9012229492948FFF794
:101A5000D9FF2949206888421DD12848077828489D
:101A60000078002803DB2648007806280BDD244890
:101A700000780C2803DB22480078122803DD204878
:101A80000078192802DB384600F090FF01221B493C
:101A90001C48FFF7B7FF1C492068884209D11B4842
:101AA0000678304600F028FE012218491848FFF752
:101AB000A9FF18492068884216D1174890F800807D
:101AC0000F480078062803DB0D4800780C2803DD5A
:101AD0000B480078122802DB404600F0F1FE01229C
:101AE0000D490E48FFF78EFFBDE8F0810038014038
:101AF00008000020380100200044004009000020B8
:101B00000E00002080010020004800400A00002054
:101B1000C8010020004C00400B000020F000002015
:101B20002DE9F84F04460E46174699464FF0000A35
:101B300094F8410020284AD106B117B90120BDE828
:101B4000F88F00206064212084F84100FEF70AFE2F
:101B50008246A784E784A068B0F5805F04D120693D
:101B600010B90025B04602E035464FF000081BE0F2
:101B70005346002280212046CDF8009000F046FC1C
:101B800008B10320DBE745B9B8F80000C0F308004E
:101B90002168486008F1020803E02878216848605D
:101BA0006D1CE08C401EE084E08C0028E0D15346A0
:101BB000002240212046CDF8009000F027FC08B11B
:101BC0000320BCE7202084F841000020B7E7022072
:101BD000B5E7704700BFFEE710B53048007830B970
:101BE000AA2000F077FC01202C49087054E02B4813
:101BF0000078012806D1BB2000F06CFC02202749A8
:101C0000087049E025480078022806D1AA2000F093
:101C100061FC0320214908703EE020480078032839
:101C200007D11F48007800F055FC04201B490870BC
:101C300032E01A480078042807D11A48007800F0EA
:101C400049FC05201549087026E01448007805284D
:101C500007D11548007800F03DFC06200F490870B8
:101C60001AE00E480078062807D10F48007800F0E7
:101C700031FC0720094908700EE008480078072861
:101C800007D10948007800F025FC082003490870B6
:101C900002E000200149087010BD00006000002033
:101CA000410000200E0000204200002010B5014637
:101CB0002C4A12786AB912290BD10222294B1A70C8
:101CC000294A13781278521C274C2270274AD15483
:101CD00047E0244A1278022A15D1234A1378127851
:101CE000521C214C2270214AD15422461278032AD8
:101CF00001DA5B2935D103221A4B1A701B4A52783C
:101D00001B4B1A702DE0174A1278032A1BD1164A72
:101D10001278521E154B9A5C5B2A05D10022114B9A
:101D20001A70114B1A701CE000220E4B1A700E4BE9
:101D30001A70002004E000220C4B1A54421CD0B24E
:101D40000328F8DB0DE00022064B1A70064B1A70D0
:101D5000002004E00022054B1A54421CD0B2032894
:101D6000F8DB10BD56000020550000202C0000209C
:101D70000C00002000B585B0002001900290039077
:101D8000049000BF2C48806940F020002A498861F7
:101D90000846806900F02000009000BF00BF00BF2F
:101DA0000846806940F0100088610846806900F0AC
:101DB0001000009000BF00BF00BF0846806940F0DF
:101DC000040088610846806900F00400009000BFAC
:101DD00000BF00BF0846806940F0080088610846DF
:101DE000806900F00800009000BF00BF00220121C0
:101DF0001248FEF7B1FC00224FF480711048FEF744
:101E0000ABFC01200190029000200390022004907E
:101E100001A90A48FEF700FB4FF4807001900120F1
:101E20000290002003900220049001A90448FEF7CC
:101E3000F3FA05B000BD00000010024000100140A0
:101E4000000C01401CB50020009001900E480F4985
:101E5000086041F61F40486000210C488160C7219E
:101E6000C16000218161FFF729F908B1FEF7BBF9D4
:101E700000200090019069460448FFF7D1F808B1AE
:101E8000FEF7B1F91CBD000000140040A8000020BE
:101E900010B50B480B4908604FF4165048600021FC
:101EA00008488160C16001610C21416100218161AC
:101EB000C161FFF763FC08B1FEF795F910BD0000A2
:101EC000004C0040F000002010B50B480B490860A2
:101ED0004FF416504860002108488160C1600161DC
:101EE0000C21416100218161C161FFF747FC08B10C
:101EF000FEF779F910BD00000038014038010020DC
:101F000010B50B480B4908604FF41650486000218B
:101F100008488160C16001610C214161002181613B
:101F2000C161FFF72BFC08B1FEF75DF910BD0000A1
:101F3000004400408001002010B50B480B490860A8
:101F40004FF416504860002108488160C16001616B
:101F50000C21416100218161C161FFF70FFC08B1D3
:101F6000FEF741F910BD000000480040C801002004
:101F700000BFFEE700BFFEE77047000008B5084954
:101F80000968C9084FF47A72B1FBF2F1414300913C
:101F900000BF00BF00994A1E00920029F9D108BD78
:101FA0001C000020704710B5FEF7E2FB10BD00B525
:101FB0008FB0282105A8FEF7E0F814216846FEF747
:101FC000DCF8012005900004069000200790012015
:101FD000099002200C90C1030D914FF4E0110E9175
:101FE00005A8FEF7BBFD08B1FEF7FDF80F20009035
:101FF00002200190002002904FF4806003900020A6
:10200000049002216846FEF785FC08B1FEF7EBF864
:102010000FB000BD7047000010B50248FFF7EDF8A3
:1020200010BD0000A800002010B50268204B9842A7
:102030000ED0204B98420BD0B0F1804F08D01E4BF1
:10204000984205D01D4B984202D01D4B984203D1B7
:1020500022F070024B681A43154B98420ED0154B74
:1020600098420BD0B0F1804F08D0134B984205D066
:10207000124B984202D0124B984203D122F4407284
:10208000CB681A4322F080034C6943EA04020260E1
:102090008B68C3620B688362054B984202D0054B84
:1020A000984201D10B6903630123436110BD000015
:1020B000002C0140003401400004004000080040B2
:1020C000000C004010B50248FFF7E6F910BD000013
:1020D000F000002070B505466C6A0020E085E084C1
:1020E0002046FFF7D7F970BD00BF00BF02680C3271
:1020F00052E8002F22F4907102680C3242E800137B
:10210000002BF3D100BF00BF00BF0268143252E8B9
:10211000002F22F001010268143242E80013002B64
:10212000F3D100BF016B01290ED100BF00BF0268CF
:102130000C3252E8002F22F0100102680C3242E803
:102140000013002BF3D100BF202180F842100021A2
:102150000163704710B504462068C06820F0400055
:102160002168C860202084F841002046FFF731FD37
:10217000002010BDF8B5044694F84200222875D11D
:10218000A068B0F5805F0CD1206950B90025A66A1F
:1021900020684068C0F308003080A06A801CA062FC
:1021A00015E0A56A0026A068B0F5805F03D0A0689E
:1021B00028B9206918B920684068287004E02068B0
:1021C000406800F07F002870A06A401CA062E08D8B
:1021D000401E80B2E085002846D12068C06820F00B
:1021E00020002168C8602068C06820F480702168E1
:1021F000C8602068406920F0010021684861202003
:1022000084F8420000206063206B012826D1002062
:10221000206300BF00BF21680C3151E8001F21F08E
:10222000100021680C3141E80002002AF3D100BF00
:102230002068006800F0100010280AD100BF0020BC
:10224000009020680068009020684068009000BFFF
:1022500000BFA18D2046FFF71CF902E02046FFF7E2
:10226000E7FB0020F8BD01E00020FBE70220F9E7D2
:1022700070B504462168096921F44051E2681143B0
:10228000226811612269A1681143626941EA02056D
:102290002168C96841F20C62914329432268D160E8
:1022A0002168496921F44071A26911432268516192
:1022B0002D4A2168914202D1FEF708FC01E0FEF7A9
:1022C000F5FB00EBC00101EB001162689200B1FB6D
:1022D000F2F100EBC00202EB001263689B00B2FB5C
:1022E000F3F26423B2FBF3F202EBC20303EB02123C
:1022F000A1EB8201322202EB01116422B1FBF2F167
:1023000001F0F00100EBC00202EB001263689B00D9
:10231000B2FBF3F26423B2FBF3F201EB021200EB27
:10232000C00101EB001163689B00B1FBF3F100EB0E
:10233000C00303EB00136668B600B3FBF6F3642634
:10234000B3FBF6F303EBC30606EB0313A1EB830128
:10235000322303EB01116423B1FBF3F101F00F0110
:1023600011442268916070BD0038014010B50346E9
:1023700099629A85DA8500205864222083F8420009
:10238000186928B11868C06840F480701C68E06063
:102390001868406940F001001C6860611868C068F6
:1023A00040F020001C68E060002010BD014691F85C
:1023B0004100212828D18868B0F5805F0BD10869D9
:1023C00048B90A6A1088C0F308000B685860086AA8
:1023D000801C086205E00B6A581C086218780B68BC
:1023E0005860C88C401E80B2C88458B90868C0685C
:1023F00020F080000B68D8600868C06840F040009A
:102400000B68D860002070470220FCE72DE9F041FE
:1024100004460D4617469846069E34E0701C88B365
:102420002EB1FEF79FF9A0EB0800B0422BD900BFF8
:1024300000BF21680C3151E8001F21F4D0702168E1
:102440000C3141E80002002AF3D100BF00BF00BFF9
:102450002168143151E8001F21F001002168143176
:1024600041E80002002AF3D100BF202084F8410097
:1024700084F8420000BF002084F8400000BF032021
:10248000BDE8F081FFE7206800682840A84201D13C
:10249000012000E00020B842C0D00020F0E700009A
:1024A00010B50248FEF7F8FF10BD0000380100200B
:1024B00010B50248FEF7F0FF10BD000080010020BB
:1024C00010B50248FEF7E8FF10BD0000C80100206B
:1024D00000BFFEE701B54FF47A7301226946024856
:1024E000FFF71EFB08BD00003801002001B54FF4C6
:1024F0007A73012269460248FFF712FB08BD00000B
:10250000C80100200FB4084B10B504A902AA039813
:1025100000F038F8044602A9002000F0DDF820465B
:1025200010BC5DF814FB0000D926000802480068C2
:10253000C0F30220704700000CED00E010B5002849
:1025400004DB0A07130E054A135406E00A07140EAB
:10255000034A00F00F031B1FD45410BD00E400E039
:1025600018ED00E002E008C8121F08C1002AFAD1E5
:1025700070477047002001E001C1121F002AFBD103
:10258000704700002DE9FF4F89B09B4604460025A7
:1025900006E025280BD05A460B999047641C6D1C09
:1025A00020780028F5D10DB02846BDE8F08F00272F
:1025B000B8460122474900E0074314F8013F203B99
:1025C00002FA03F00842F7D120782E2819D114F826
:1025D000010F47F004072A280ED06FF02F02207851
:1025E000A0F1300109290CD808EB880102EB410168
:1025F00000EB0108641CF2E70A98641C50F8048B95
:102600000A9020780028CED0642808D0692806D007
:1026100075281ED05A460B9990476D1C58E00A99B0
:102620004FF00A0901C90A91002802DA40422D211F
:1026300002E0390504D52B218DF82010012103E09B
:10264000F90704D02021F7E78A4608AE0DE0002103
:10265000FAE70A994FF00A0901C90A91F7E74946D2
:10266000FDF796FD303106F8011D0028F7D1ADEBDE
:10267000060000F12009780701D44FF00108C84591
:1026800002DDA8EB090000E000208046002706E0FC
:1026900008A85A46C05D0B9990476D1C7F1C574592
:1026A000F6DB04E030205A460B9990476D1CB8F1D8
:1026B0000001A8F10108F5DC05E016F8010B5A4607
:1026C0000B9990476D1CB9F10001A9F10109F4DCE7
:1026D000641C65E7092801000A68531C0B60107030
:1026E0007047000010B504460420FEF769FC01485D
:1026F000046010BD6400002010B501463A4A12780B
:102700006AB9AA290BD10122374B1A70374A1378BC
:102710001278521C354C2270354AD15462E0324A4C
:102720001278012A0DD1BB290BD102222E4B1A702F
:102730002E4A13781278521C2C4C22702C4AD154F9
:1027400050E0294A1278022A1CD1284A13781278BC
:10275000521C264C2270264AD15422461278052A51
:1027600001DACC293ED103221F4B1A700122214BE2
:102770001A701F4A9278204B1A701D4AD2781F4B4C
:102780001A702FE0184A1278032A1DD1174A1278BE
:10279000521E174B9A5CCC2A07D10022154B1A7097
:1027A000124B1A70104B1A701CE000220E4B1A705C
:1027B0000E4B1A70002004E000220D4B1A54421CEC
:1027C000D0B20628F8DB0DE00022074B1A70074B49
:1027D0001A70002004E00022054B1A54421CD0B2AB
:1027E0000628F8DB10BD000058000020570000202C
:1027F0002F00002059000020410000200E00002082
:10280000FDF7C2FFFFF7D3FBFFF7B4FAFFF75CFB5E
:10281000FFF718FBFFF774FBFFF78EFBFFF738FBA2
:102820001948FEF7A1FC012218491948FFF7EAF8F8
:10283000012218491848FFF7E5F8012217491848FE
:10284000FFF7E0F8012217491748FFF7DBF84820A7
:10285000FFF748FF1548B0F9002015A11748FFF70A
:1028600051FE002400250DE0601CC4B2681CC5B2F6
:102870000A2C02DDFDF7BAFC0024322D02DDFFF741
:10288000ABF90025F0E70000A800002008000020B8
:102890003801002009000020800100200A000020EB
:1028A000C80100200B000020F000002020000020C4
:1028B000504F535F5820256400000000680000203E
:1028C0003249097869B9AA280BD101212F4A117020
:1028D0002F490A780978491C2D4B19702D498854C5
:1028E00053E02A49097801290DD1BB280BD10221D7
:1028F000264A117026490A780978491C244B197018
:102900002449885441E02149097802291FD12049EE
:102910000A780978491C1E4B19701E498854897819
:102920001D4A117019460978052901DACC282CD1E5
:102930000321164A11700121184A1170154989782E
:10294000174A11701349C978164A11701DE00F49D2
:102950000978032914D10E490978491E124A515C9D
:10296000CC2907D100210D4A1170094A1170074A7C
:1029700011700AE00021054A1170054A117004E047
:102980000021024A1170024A117070475E00002057
:102990005D0000203B000020490000205F00002077
:1029A0004300002042000020350000203249097811
:1029B00069B9AA280BD101212F4A11702F490A7831
:1029C0000978491C2D4B19702D49885453E02A4928
:1029D000097801290DD1BB280BD10221264A11709B
:1029E00026490A780978491C244B197024498854CF
:1029F00041E02149097802291FD120490A78097844
:102A0000491C1E4B19701E49885489781D4A117043
:102A100019460978052901DACC282CD10321164A58
:102A200011700121184A117015498978174A1170DF
:102A30001349C978164A11701DE00F490978032916
:102A400014D10E490978491E0D4A515CCC2907D191
:102A500000210D4A1170094A1170074A11700AE0ED
:102A60000021054A1170054A117004E00021024A54
:102A70001170024A117070475B0000205A0000205C
:102A800035000020490000205C00002043000020A9
:102A90004200002002030405060708090A0B0C0D7A
:102AA0000E0F1010010200000000000000000102E3
:102AB00003040607080900000000010203040000E7
:102AC000E02A0008000000206800000064250008DB
:102AD000482B000868000020A805000074250008A5
:102AE00000000000000000010000000002000000E3
:102AF0000000000010000000010000000024F400AD
:102B000000000000000000000000000000000000C5
:102B100000000000000000000000000000000000B5
:102B2000000A00000000000000002C12005BAAAAAE
:102B3000BB000000CC00000000000000000000000E
:082B400000000000000000008D
:0400000508000131BD
:00000001FF
