:020000040800F2
:10000000681B0020318B0008557500083B8B0008E9
:10001000577500085B7500085F7500080000000058
:1000200000000000000000000000000063750008F0
:100030006575000800000000478B00083576000851
:100040004B8B00084B8B00084B8B00084B8B000838
:100050004B8B00084B8B00084B8B00084B8B000828
:100060004B8B00084B8B00084B8B00084B8B000818
:100070004B8B00084B8B00084B8B00084B8B000808
:100080004B8B00084B8B00084B8B00084B8B0008F8
:100090004B8B00084B8B00084B8B000867750008E2
:1000A0004B8B00084B8B00084B8B00084B8B0008D8
:1000B0004B8B000879750008817500084B8B000890
:1000C0004B8B00084B8B00084B8B00084B8B0008B8
:1000D0004B8B00089D750008A5750008AD750008DC
:1000E0004B8B00084B8B00084B8B00084B8B000898
:1000F0004B8B00084B8B00084B8B00084B8B000888
:100100004B8B00084B8B00084B8B00084B8B000877
:10011000B5750008BD7500084B8B00088375000895
:100120004B8B00084B8B00084B8B00084B8B000857
:100130004B8B00084B8B00084B8B00084B8B000847
:100140004B8B00084B8B00084B8B00084B8B000837
:100150004B8B00084B8B00084B8B0008C5750008C3
:100160004B8B00084B8B00084B8B00084B8B000817
:100170004B8B00084B8B00084B8B00084B8B000807
:100180004B8B00084B8B0008DFF810D010F01CFFE1
:1001900000480047A5010008AFF30080681B00205D
:1001A00000BFFEE705F07AFD04F0FCF801E004F082
:1001B0001FF9FCE7FD4890ED050ADFEDFD0AB4EEFE
:1001C000E00AF1EE10FA0CDD90ED050ADFEDF90A18
:1001D000B4EEE00AF1EE10FA03D20120F6490870FD
:1001E0002CE0F24890ED050ADFEDF40AB4EEE00AE7
:1001F000F1EE10FA0CDD90ED050ADFEDF10AB4EE38
:10020000E00AF1EE10FA03DD0220EB49087015E078
:10021000E64890ED050ADFEDEB0AB4EEE00AF1EEF8
:1002200010FA0BDD90ED050ADFEDE70AB4EEE00A07
:10023000F1EE10FA02DD0320DF490870704710B5B7
:1002400040F2DC51E148A0F84210E14800680F2874
:1002500013D2DFE800F00813304657E5FCFBFAF94B
:10026000F8F7F6F5F40040F2DC51D848A0F8421057
:1002700005F08DFA0120D6490860F5E1D5480088DF
:10028000B0F57A7F05DAD3480088401CD149088050
:1002900010E0D0480088B0F57A7F0BDBCE480078BC
:1002A000032807D10020CB4908800220C8490860F4
:1002B00005F050F8D8E1C7480088642805DAC54839
:1002C0000088401CC34908800AE00020C14908801A
:1002D0000320BF490860C149098888B205F0B3F816
:1002E000C2E1BC480088642805DABA480088401C8E
:1002F000B849088005E00020B64908800420B449C8
:100300000860B1E1B348008840F2262188427ADAD9
:10031000A64890ED050ADFEDA60AB4EEE00AF1EE7C
:1003200010FA0CDD90ED050ADFEDA20AB4EEE00A4A
:10033000F1EE10FA03D201209F4908702CE09B488F
:1003400090ED050ADFED9D0AB4EEE00AF1EE10FA39
:100350000CDD90ED050ADFED9A0AB4EEE00AF1EE4D
:1003600010FA03DD02209449087015E08F4890EDE3
:10037000050ADFED940AB4EEE00AF1EE10FA0BDDA7
:1003800090ED050ADFED900AB4EEE00AF1EE10FA06
:1003900002DD0320884908708E480088401C8D4982
:1003A0000880824991ED050ABDEEC00A10EE100AE0
:1003B0006FF0AE0105F0ADFA894908807B4991EDF7
:1003C000060ABDEEC00A10EE100A002105F0A1FADF
:1003D00084490880814A128891B2834AD06905F025
:1003E000FFF9824908808248B0F900300846B0F928
:1003F00000207C48B0F900107948B0F9000005F001
:1004000043F90CE0FFE700231A461946184605F0A9
:100410003BF905206E49086000206E49088023E101
:100420006C48008896283DDA6A480088401C694973
:1004300008805E4991ED050ABDEEC00A08E00DE1B5
:10044000F8E0F1E0EFE0EDE0EBE0E9E0E7E036E0F6
:1004500010EE100A6FF0AE0105F05BFA60490880FB
:10046000524991ED060ABDEEC00A10EE100A0021B5
:1004700005F04FFA5B4908805B49C869642105F0C3
:10048000AFF95A4908805A48B0F900300846B0F927
:1004900000205448B0F900105148B0F9000005F0B0
:1004A000F3F80BE000231A461946184605F0ECF85D
:1004B000062047490860002046490880D4E04548A6
:1004C000008840F2262188426FDA384890ED050A0C
:1004D000DFED370AB4EEE00AF1EE10FA0CDD90ED34
:1004E000050ADFED340AB4EEE00AF1EE10FA03D2A9
:1004F0000620314908702CE02C4890ED050ADFED0C
:100500002F0AB4EEE00AF1EE10FA0CDD90ED050AC8
:10051000DFED2B0AB4EEE00AF1EE10FA03DD052060
:100520002549087015E0214890ED050ADFED250A00
:10053000B4EEE00AF1EE10FA0BDD90ED050ADFED06
:10054000220AB4EEE00AF1EE10FA02DD04201A49A4
:10055000087020480088401C1E490880134991ED0E
:10056000050ABDEEC00A10EE100A002105F0D1F90F
:100570001B4908800D4991ED060ABDEEC00A10EE38
:10058000100A002105F0C5F9164908801649C86906
:10059000642105F025F9154908801548B0F90030A7
:1005A0000846B0F900200F4824E02BE0680B00203B
:1005B00000009CC2000090C228000020000000C380
:1005C0000000F4C2000032C300002CC31C0A00204B
:1005D0000000002010000020BA01002020000020B0
:1005E000180000201A000020880A00201C000020AB
:1005F0001E000020B0F90010FA48B0F9000005F024
:1006000043F80BE000231A461946184605F03CF85B
:100610000C20F54908600020F449088024E023E01C
:1006200022E021E020E01FE004F02EFF0D20EE4943
:10063000086019E0ED480088ED49B1F900108842E2
:1006400005DAEA480088401CE849088005E00E20E9
:10065000E54908600020E549088005E004F096FEC1
:100660000F20E149086000BF00BF10BD10B540F287
:10067000DC51E048A0F84210DB480068252881F0F2
:100680001082DFE810F0250031004E006200730098
:10069000C20011016001C70116026502AC02F4023A
:1006A00043039203F60345049404E30432058105F1
:1006B000E30532068106D00617076007B007150864
:1006C0006508B508050955099009D909DF09080A1F
:1006D00040F2DC51C748A0F8421005F058F801205C
:1006E000C149086001F0DDB9C0480088B0F57A7FE3
:1006F00005DABE480088401CBC49088010E0BB48B1
:100700000088B0F57A7F0BDBBB480078032807D15F
:100710000020B64908800220B349086004F01AFEA0
:10072000E0E7B2480088642805DAB0480088401C39
:10073000AE49088008E00020AC4908800320AA499F
:100740000860962004F07FFECCE7A8480088642863
:1007500005DAA6480088401CA449088005E000206E
:10076000A24908800420A0490860BBE79F48008890
:1007700096283ADA9D480088401C9C4908809F4989
:1007800091ED050ABDEEC00A10EE100A6FF04A01A5
:1007900005F0BFF893490880984991ED060ABDEE2F
:1007A000C00A10EE100A002105F0B3F89449088041
:1007B0009449C869912105F013F89349088093483A
:1007C000B0F900300846B0F900208D48B0F90010AB
:1007D0008448B0F9000004F057FF844800887D2861
:1007E00012DB01208A4908700EE000231A461946E0
:1007F000184604F049FF01208549087005207A4910
:1008000008600020794908806CE7784800889628BD
:100810003ADA76480088401C74490880774991ED9F
:10082000050ABDEEC00A10EE100A6FF04A0105F08D
:1008300070F86C490880714991ED060ABDEEC00A56
:1008400010EE100A002105F064F86D4908806D492A
:10085000C869642104F0C4FF6B4908806B48B0F993
:1008600000300846B0F900206548B0F900105D4836
:10087000B0F9000004F008FF5C480088782812DB1B
:100880000220634908700EE000231A4619461846F4
:1008900004F0FAFE02205E49087006205249086002
:1008A0000020524908801DE75048008896283ADA0F
:1008B0004E480088401C4D490880504991ED050A7A
:1008C000BDEEC00A10EE100A6FF07C0105F021F8B1
:1008D00044490880494991ED060ABDEEC00A10EE70
:1008E000100A002105F015F8454908804549C869F6
:1008F000642104F075FF444908804448B0F9003091
:100900000846B0F900203E48B0F900103548B0F96B
:10091000000004F0B9FE35480088782812DB032077
:100920003B4908700EE000231A461946184604F0A9
:10093000ABFE03203649087007202B4908600020D1
:100940002A490880CEE62948008896283ADA2748BE
:100950000088401C25490880284991ED050ABDEE14
:10096000C00A10EE100A6FF07C0104F0D2FF1D499E
:100970000880224991ED060ABDEEC00A10EE100A69
:10098000002104F0C6FF1E4908801E49C869912154
:1009900004F026FF1C4908801C48B0F900300846C6
:1009A000B0F900201648B0F900100E48B0F9000068
:1009B00004F06AFE0D480088782812DB04201449F0
:1009C00008700EE000231A461946184604F05CFE33
:1009D00004200F49087008200349086000200349DB
:1009E00008807FE618000020000000201000002092
:1009F000220000201C0A0020BA010020680B002001
:100A00001A000020880A00201C0000201E00002080
:100A100028000020FE48008896283ADAFC48008822
:100A2000401CFB490880FB4991ED050ABDEEC00A58
:100A300010EE100A6FF0AE0104F06BFFF64908806B
:100A4000F44991ED060ABDEEC00A10EE100A00212D
:100A500004F05FFFF1490880F149C869912104F071
:100A6000BFFEF0490880F048B0F900300846B0F900
:100A70000020EA48B0F90010E748B0F9000004F09F
:100A800003FEE3480088782812DB0520E749087058
:100A90000EE000231A461946184604F0F5FD05201D
:100AA000E24908700920E24908600020D84908801E
:100AB00018E6D7480088C8283ADAD5480088401C8C
:100AC000D3490880D34991ED050ABDEEC00A10EE66
:100AD000100A6FF0AE0104F01CFFCF490880CD4929
:100AE00091ED060ABDEEC00A10EE100A002104F0D6
:100AF00010FFCA490880CA49C869642104F070FE21
:100B0000C8490880C848B0F900300846B0F900204C
:100B1000C248B0F90010C048B0F9000004F0B4FDBC
:100B2000BB480088A02812DB0620C04908700EE0F0
:100B300000231A461946184604F0A6FD0620BB49B4
:100B400008700A20BA4908600020B1490880C9E548
:100B5000AF480088C82832DAAD480088401CAC494C
:100B60000880AC4991ED050ABDEEC00A10EE100AEE
:100B7000B04904F0CEFEA8490880A64991ED060AC6
:100B8000BDEEC00A10EE100A002104F0C2FEA34917
:100B90000880A349C869642104F022FEA1490880A5
:100BA000A148B0F900300846B0F900209B48B0F9E0
:100BB00000109948B0F9000004F066FD0EE0002333
:100BC0001A461946184604F05FFD0620974908703A
:100BD0000B209749086000208D49088082E58C48E9
:100BE0000088B0F5967F32DA89480088401C884931
:100BF0000880884991ED050ABDEEC00A10EE100A82
:100C00008C4904F086FE84490880824991ED060AE9
:100C1000BDEEC00A10EE100A962104F07AFE7F495C
:100C200008807F49C869642104F0DAFD7D490880A5
:100C30007D48B0F900300846B0F900207748B0F997
:100C400000107548B0F9000004F01EFD0EE000230E
:100C50001A461946184604F017FD06207349087015
:100C60000C20734908600020694908803AE568480B
:100C70000088C8283ADA66480088401C6449088021
:100C8000644991ED050ABDEEC00A10EE100A6FF03E
:100C9000AE0104F03EFE604908805E4991ED060A0F
:100CA000BDEEC00A10EE100A962104F032FE5B4938
:100CB00008805B49C869642104F092FD59490880A5
:100CC0005948B0F900300846B0F900205348B0F94F
:100CD00000105148B0F9000004F0D6FC4C480088E0
:100CE000A02812DB0720514908700EE000231A46A5
:100CF0001946184604F0C8FC07204C4908700D201E
:100D00004B490860002042490880EBE440480088D5
:100D100096283ADA3E480088401C3D4908803D4903
:100D200091ED050ABDEEC00A10EE100A6FF0AE019B
:100D300004F0EFFD38490880364991ED060ABDEE12
:100D4000C00A10EE100A962104F0E3FD3349088032
:100D50003349C869912104F043FD32490880324883
:100D6000B0F900300846B0F900202C48B0F9001066
:100D70002948B0F9000004F087FC2548008878284D
:100D800012DB0820294908700EE000231A46194694
:100D9000184604F079FC0820244908700E202449E4
:100DA000086000201A4908809CE4194800889628A9
:100DB0004FDA17480088401C15490880154991ED05
:100DC000050ABDEEC00A10EE100A6FF07C0104F0B7
:100DD000A0FD114908800F4991ED060ABDEEC00A39
:100DE00010EE100A962104F094FD0C4908800C497D
:100DF000C8698C2104F0F4FC0A4908800A48B0F95B
:100E000000300846B0F900200448B0F9001013E0A3
:100E100010000020680B0020180000201A0000209D
:100E2000880A00201C0000201E000020280000204E
:100E300000000020F2FEFFFFFB48B0F9000004F0C4
:100E400023FCFA480088782812DB0920F84908704A
:100E50000EE000231A461946184604F015FC092036
:100E6000F34908700F20F34908600020EF4908801B
:100E700038E4EE48008896283ADAEC480088401CAE
:100E8000EA490880EC4991ED050ABDEEC00A10EE72
:100E9000100A6FF07C0104F03CFDE3490880E6494C
:100EA00091ED060ABDEEC00A10EE100A962104F07C
:100EB00030FDE2490880E249C869642104F090FCF1
:100EC000E0490880E048B0F900300846B0F9002059
:100ED000DA48B0F90010D448B0F9000004F0D4FBAF
:100EE000D2480088782812DB0A20D14908700EE029
:100EF00000231A461946184604F0C6FB0A20CC49BE
:100F000008701020CB4908600020C849088007E419
:100F1000C648008896283ADAC4480088401CC3496D
:100F20000880C54991ED050ABDEEC00A10EE100A11
:100F30006FF04A0104F0EDFCBB490880BE4991ED19
:100F4000060ABDEEC00A10EE100A962104F0E1FC7C
:100F5000BA490880BA49C869642104F041FCB9491A
:100F60000880B948B0F900300846B0F90020B3480D
:100F7000B0F90010AC48B0F9000004F085FBAB48B4
:100F80000088782812DB0B20A94908700EE00023A6
:100F90001A461946184604F077FB0B20A44908703E
:100FA0001120A44908600020A04908802CE49F4833
:100FB0000088C8283ADA9D480088401C9B49088070
:100FC0009D4991ED050ABDEEC00A10EE100A6FF0C2
:100FD0004A0104F09EFC94490880974991ED060A65
:100FE000BDEEC00A10EE100A962104F092FC93495F
:100FF00008809349C869912104F0F2FB9149088067
:101000009148B0F900300846B0F900208B48B0F99B
:1010100000108548B0F9000004F036FB83480088D2
:10102000A02812DB0C20824908700EE000231A462B
:101030001946184604F028FB0C207D490870122040
:101040007C4908600020794908802CE477480088B2
:10105000C8283ADA75480088401C744908807649E7
:1010600091ED050ABDEEC00A10EE100A6FF04A01BC
:1010700004F04FFC6C4908806F4991ED060ABDEE03
:10108000C00A10EE100AC82104F043FC6B49088026
:101090006B49C869912104F0A3FB6A4908806A483A
:1010A000B0F900300846B0F900206448B0F90010EB
:1010B0005D48B0F9000004F0E7FA5C480088A02819
:1010C00012DB0D205A4908700EE000231A4619461B
:1010D000184604F0D9FA0D205549087013205549D7
:1010E00008600020514908802CE450480088C82836
:1010F0003ADA4E480088401C4C4908804E4991ED30
:10110000050ABDEEC00A10EE100A6FF04A0104F0A5
:1011100000FC45490880484991ED060ABDEEC00A29
:1011200010EE100AC82104F0F4FB44490880444939
:10113000C869642104F054FB424908804248B0F970
:1011400000300846B0F900203C48B0F9001036489D
:10115000B0F9000004F098FA34480088A02812DBA7
:101160000E20334908700EE000231A46194618462F
:1011700004F08AFA0E202E49087014202D490860C8
:1011800000202A4908802CE42848008896283ADA6A
:1011900026480088401C25490880274991ED050A0A
:1011A000BDEEC00A10EE100A6FF07C0104F0B1FB36
:1011B0001D490880204991ED060ABDEEC00A10EED7
:1011C000100AC82104F0A5FB1C4908801C49C86905
:1011D000642104F005FB1B4908801B48B0F900306E
:1011E0000846B0F900201548B0F900100E48B0F9D3
:1011F000000004F049FA0D480088782812DB0F201F
:101200000B4908700EE000231A461946184604F0F0
:101210003BFA0F2006490870152006490860002097
:101220000249088043E2000018000020100000205E
:101230002800002000000020680B00201A00002079
:10124000880A00201C0000201E000020FE480088A4
:1012500096283ADAFC480088401CFB490880FB4984
:1012600091ED050ABDEEC00A10EE100A6FF07C0188
:1012700004F04FFBF6490880F44991ED060ABDEEF3
:10128000C00A10EE100AC82104F043FBF14908809F
:10129000F149C8698C2104F0A3FAF0490880F048AC
:1012A000B0F900300846B0F90020EA48B0F9001063
:1012B000E748B0F9000004F0E7F9E348008878282F
:1012C00012DB1020E74908700EE000231A46194689
:1012D000184604F0D9F91020E24908701620E249B6
:1012E00008600020D8490880DBE3D74800889628AA
:1012F0003ADAD5480088401CD3490880D34991ED9B
:10130000050ABDEEC00A10EE100A6FF0AE0104F03F
:1013100000FBCF490880CD4991ED060ABDEEC00A19
:1013200010EE100AC82104F0F4FACA490880CA492C
:10133000C8698C2104F054FAC8490880C848B0F93B
:1013400000300846B0F90020C248B0F90010C0488B
:10135000B0F9000004F098F9BB480088782812DB47
:101360001120C04908700EE000231A46194618469D
:1013700004F08AF91120BB4908701720BA490860A7
:101380000020B14908808CE3AF48008896283ADAFB
:10139000AD480088401CAC490880AC4991ED050A75
:1013A000BDEEC00A10EE100A6FF0AE0104F0B1FA03
:1013B000A7490880A54991ED060ABDEEC00A10EEC6
:1013C000100AC82104F0A5FAA2490880A249C869F8
:1013D000642104F005FAA1490880A148B0F9003061
:1013E0000846B0F900209B48B0F900109848B0F9C1
:1013F000000004F049F994480088782812DB122094
:10140000984908700EE000231A461946184604F061
:101410003BF9122093490870182093490860002076
:10142000894908803DE388480088C82832DA864820
:101430000088401C84490880844991ED050ABDEE6E
:10144000C00A10EE100A894904F063FA8049088046
:101450007E4991ED060ABDEEC00A10EE100AC821C1
:1014600004F057FA7B4908807B49C869642104F07D
:10147000B7F97A4908807A48B0F900300846B0F9DF
:1014800000207448B0F900107148B0F9000004F071
:10149000FBF80EE000231A461946184604F0F4F84B
:1014A00012207049087019206F49086000206649B1
:1014B0000880F6E264480088B0F5967F33DA624827
:1014C0000088401C60490880604991ED050ABDEE26
:1014D000C00A10EE100A654904F01BFA5C49088046
:1014E0005A4991ED060ABDEEC00A10EE100A4FF4FB
:1014F000AF7104F00EFA574908805749C869642152
:1015000004F06EF9554908805548B0F90030084696
:10151000B0F900204F48B0F900104D48B0F9000074
:1015200004F0B2F80EE000231A461946184604F0FB
:10153000ABF812204B4908701A204B490860002074
:1015400041490880ADE240480088C8283BDA3E485F
:101550000088401C3C4908803C4991ED050ABDEEDD
:10156000C00A10EE100A6FF0AE0104F0D2F938494B
:101570000880364991ED060ABDEEC00A10EE100A49
:101580004FF4AF7104F0C5F9324908803249C86997
:10159000642104F025F9314908803148B0F9003060
:1015A0000846B0F900202B48B0F900102848B0F9DF
:1015B000000004F069F824480088A02812DB1320FA
:1015C000284908700EE000231A461946184604F010
:1015D0005BF81320234908701B2023490860002072
:1015E000194908805DE218480088962850DA1648A4
:1015F0000088401C14490880144991ED050ABDEE8D
:10160000C00A10EE100A6FF07C0104F082F9104954
:1016100008800E4991ED060ABDEEC00A10EE100AD0
:101620004FF4AF7104F075F90A4908800A49C86996
:10163000642104F0D5F8094908800948B0F9003060
:101640000846B0F9002013E010000020680B0020CD
:10165000180000201A000020880A00201C0000202A
:101660001E0000202800002000000020F2FEFFFFE6
:10167000FB48B0F90010FB48B0F9000004F004F892
:10168000F9480088782812DB1420F84908700EE029
:1016900000231A461946184603F0F6FF1420F349B2
:1016A00008701C20F24908600020EF490880F8E12A
:1016B000ED48008896283BDAEB480088401CEA4950
:1016C0000880EC4991ED050ABDEEC00A10EE100A43
:1016D0006FF04A0104F01DF9E2490880E54991EDF7
:1016E000060ABDEEC00A10EE100A4FF4AF7104F006
:1016F00010F9DB490880E049C869642104F070F8FA
:10170000DE490880DE48B0F900300846B0F9002014
:10171000D348B0F90010D348B0F9000003F0B4FF8B
:10172000D1480088782812DB1520D04908700EE0D7
:1017300000231A461946184603F0A6FF1520CB4988
:1017400008701D20CA4908600020C7490880A8E128
:10175000C548008896283BDAC3480088401CC24927
:101760000880C44991ED050ABDEEC00A10EE100ACA
:101770006FF04A0104F0CDF8BA490880BD4991EDF7
:10178000060ABDEEC00A10EE100A4FF4AF7104F065
:10179000C0F8B3490880B849C8698C2104F020F822
:1017A000B6490880B648B0F900300846B0F90020C4
:1017B000AB48B0F90010AB48B0F9000003F064FF8B
:1017C000A9480088782812DB1620A84908700EE086
:1017D00000231A461946184603F056FF1620A3495F
:1017E00008701E20A249086000209F49088058E127
:1017F0009D48008896283BDA9B480088401C9A49FF
:1018000008809C4991ED050ABDEEC00A10EE100A51
:101810006FF07C0104F07DF892490880954991EDC4
:10182000060ABDEEC00A10EE100A4FF4AF7104F0C4
:1018300070F88B4908809049C8698C2103F0D0FF6B
:101840008E4908808E48B0F900300846B0F9002073
:101850008348B0F900108348B0F9000003F014FF8A
:1018600081480088782812DB1720804908700EE034
:1018700000231A461946184603F006FF17207B4935
:1018800008701F207A49086000207749088008E125
:101890007548008896283BDA73480088401C7249D6
:1018A0000880744991ED050ABDEEC00A10EE100AD9
:1018B0006FF0AE0104F02DF86A4908806D4991ED92
:1018C000060ABDEEC00A10EE100A4FF4AF7104F024
:1018D00020F8634908806849C8698C2103F080FFBB
:1018E000664908806648B0F900300846B0F9002023
:1018F0005B48B0F900105B48B0F9000003F0C4FE8B
:1019000059480088782812DB1820584908700EE0E2
:1019100000231A461946184603F0B6FE182053490C
:10192000087020205249086000204F490880B8E024
:101930004D480088962826DA4B480088401C4A49C2
:1019400008804C4991ED050ABDEEC00A10EE100A60
:101950006FF0F90103F0DDFF42490880454991ED40
:10196000060ABDEEC00A10EE100A4FF4AF7103F084
:10197000D0FF3B4908804049C8698C2103F030FF03
:101980003E4908800EE000231A461946184603F027
:101990007BFE192035490870212035490860002058
:1019A000314908807DE030480088962837DA1920D0
:1019B0002E4908702C480088401C2B4908802D496E
:1019C00091ED050ABDEEC00A10EE100A6FF0F901A4
:1019D00003F09FFF23490880264991ED060ABDEEDA
:1019E000C00A10EE100A4FF4AF7103F092FF1C49C9
:1019F00008802149C869322103F0F2FE1F4908809E
:101A00001F48B0F900300846B0F900201448B0F97A
:101A100000101448B0F9000003F036FE0BE000237C
:101A20001A461946184603F02FFE22201049086076
:101A300000200D49088034E003F026FD23200C49E6
:101A400008602EE0084800880E49B1F9001088426D
:101A50001ADA05480088401C034908801AE0000093
:101A60001A0000201800002010000020280000208C
:101A700000000020680B0020880A00201C000020C5
:101A80001E000020220000202420F94908600020C8
:101A9000F849088005E003F079FC2520F449086046
:101AA00000BF00BF10BD10B540F2DC51F248A0F8F5
:101AB0004210EF4800680F2813D2DFE800F0081347
:101AC0003046579EE3FEFDFCFBFAF9F8F70040F2C2
:101AD000DC51E948A0F8421003F059FE0120E44926
:101AE000086016E3E3480088B0F57A7F05DAE1483C
:101AF0000088401CDF49088010E0DE480088B0F50F
:101B00007A7F0BDBDD480078032807D10020D94914
:101B100008800220D649086003F01CFCF9E2D54891
:101B20000088642805DAD3480088401CD149088021
:101B30000AE00020CF4908800320CD490860D04941
:101B4000098888B203F07FFCE3E2CA480088642871
:101B500005DAC8480088401CC649088005E0002016
:101B6000C44908800420C2490860D2E2C148008804
:101B7000FA2835DABF480088401CBE490880C149B0
:101B800091ED050ABDEEC00A10EE100A6FF0AE012D
:101B900003F0BFFEBC490880BA4991ED060ABDEECC
:101BA000C00A10EE100A002103F0B3FEB749088006
:101BB000B34A128891B2B64AD06903F011FEB54912
:101BC0000880B548B0F900300846B0F90020AF48A9
:101BD000B0F90010AC48B0F9000003F055FD0BE07F
:101BE00000231A461946184603F04EFD0520A04969
:101BF000086000209F4908808BE29E480088642886
:101C000033DA9C480088401C9A4908809D4991ED30
:101C1000050ABDEEC00A10EE100A6FF0AE0103F027
:101C200078FE99490880974991ED060ABDEEC00AF1
:101C300010EE100A002103F06CFE944908809449CC
:101C4000C869642103F0CCFD924908809248B0F93C
:101C500000300846B0F900208C48B0F900108A48DE
:101C6000B0F9000003F010FD0BE000231A461946FE
:101C7000184603F009FD06207D49086000207D49D3
:101C8000088046E27B480088FA283BDA79480088D9
:101C9000401C784908807B4991ED050ABDEEC00AD9
:101CA00010EE100A002103F034FE07E02BE216E2EA
:101CB0000FE2B5E15DE104E18DE034E072490880B6
:101CC000704991ED060ABDEEC00A10EE100A00211F
:101CD00003F01FFE6D4908806D49C869642103F057
:101CE0007FFD6C4908806C48B0F900300846B0F9B7
:101CF00000206648B0F900106348B0F9000003F016
:101D0000C3FC0FE000231A461946184603F0BCFC3A
:101D1000DC2162480BF0A6FF07205549086000202F
:101D200054490880F5E153480088962846DA51481E
:101D30000088401C4F490880524991ED050ABDEECC
:101D4000C00A10EE100A6FF4897103F0E2FD4E49EB
:101D500008804C4991ED060ABDEEC00A10EE100A4B
:101D6000192103F0D6FD49490880454A128891B2ED
:101D7000474AD06903F034FD464908804848B0F925
:101D80000400642190FBF1F000F5B47004B2454802
:101D9000B0F90010204603F001FE3F4908800846D4
:101DA000B0F900303B48B0F900203848B0F90010D5
:101DB0003548B0F9000003F067FC0BE000231A4639
:101DC0001946184603F060FC0820294908600020E5
:101DD000284908809DE127480088B0F5967F63DA9E
:101DE00024480088401C23490880264991ED050AB3
:101DF000BDEEC00A10EE100A6FF4897103F089FD80
:101E0000214908801F4991ED060ABDEEC00A10EE77
:101E1000100A7D2103F07DFD1C490880184A1288B4
:101E200091B21B4AD06903F0DBFC1A4908801C48B8
:101E3000B0F90400642190FBF1F000F5B47004B235
:101E40001848B0F90010204603F0A8FD1249088098
:101E50000846B0F900300F48B0F900200B48B0F93F
:101E600000100948B0F9000003F00EFC28E01BE068
:101E700000000020100000201C0A0020BA010020F1
:101E800020000020680B0020180000201A0000200D
:101E9000880A00201C0000201E00002000080040CE
:101EA0009A000020C800002000231A461946184650
:101EB00003F0EAFB0920FD4908600020FC49088086
:101EC00027E1FB480088B0F5167F45DAF84800881E
:101ED000401CF7490880F74991ED050ABDEEC00A9C
:101EE00010EE100AF44903F014FDF4490880F1499A
:101EF00091ED060ABDEEC00A10EE100A3C2103F077
:101F000008FDEF490880EF4A128891B2EE4AD06985
:101F100003F066FCED490880ED48B0F90400642147
:101F200090FBF1F000F5B47004B2EA48B0F900108B
:101F3000204603F033FDE84908800846B0F9003038
:101F4000E248B0F90020DE48B0F90010DB48B0F9F3
:101F5000000003F099FB0BE000231A4619461846CF
:101F600003F092FB0A20D14908600020D049088084
:101F7000CFE0CF480088962845DACD480088401C3D
:101F8000CB490880CB4991ED050ABDEEC00A10EEA1
:101F9000100AC94903F0BDFCC8490880C54991ED44
:101FA000060ABDEEC00A10EE100A002103F0B1FCD3
:101FB000C3490880C34A128891B2C34AD06903F06A
:101FC0000FFCC2490880C248B0F90400642190FBAC
:101FD000F1F000F5B47004B2BE48B0F9001020462C
:101FE00003F0DCFCBC4908800846B0F90030B74873
:101FF000B0F90020B248B0F90010B048B0F90000C4
:1020000003F042FB0BE000231A461946184603F082
:102010003BFB0B20A54908600020A549088078E01B
:10202000A348008840F28A21884245DAA048008807
:10203000401C9F4908809F4991ED050ABDEEC00AEA
:1020400010EE100A002103F064FC9C4908809949B5
:1020500091ED060ABDEEC00A10EE100A002103F051
:1020600058FC97490880974A128891B2964AD069DD
:1020700003F0B6FB954908809548B0F90400642147
:1020800090FBF1F000F5B47004B29248B0F9001082
:10209000204603F083FC904908800846B0F90030E0
:1020A0008A48B0F900208648B0F900108348B0F99A
:1020B000000003F0E9FA0BE000231A46194618461F
:1020C00003F0E2FA0C207949086000207849088082
:1020D0001FE003F0D9F90D207449086019E0744835
:1020E00000887E49B1F90010884205DA70480088FE
:1020F000401C6F49088005E00E206C4908600020F4
:102100006B49088005E003F041F90F20674908603A
:1021100000BF00BF10BD10B57148006848B900236A
:102120001A461946184603F0AFFA01206C490860B8
:1021300029E06B480068012805D103F0A5F90220C9
:10214000674908601FE066480068022812D16548A8
:102150000088401C63490880084600886249B1F93C
:10216000001088420FDB03205D49086000205D49B4
:10217000088008E05A480068032804D103F006F9F3
:1021800004205749086010BD10B5484800680D2864
:1021900012D2DFE800F00712273D4EBABEC2C6CA0F
:1021A000CED4E50040F2DC515048A0F8421003F0D4
:1021B000EEFA01203D490860D8E03D48008840F231
:1021C000DC51884205DA3A480088401C38490880CA
:1021D00007E000203649088002203449086003F0F7
:1021E000B9F8C3E032480088962805DA30480088FC
:1021F000401C2F4908800AE000202D490880032058
:102200002A4908602F49098888B203F01CF9ADE01B
:1022100027480088962805DA25480088401C24496C
:10222000088005E000202249088004201F4908603A
:102230009CE01F48008896285ADA1D480088401CF8
:102240001B4908801B4991ED050ABDEEC00A10EE3E
:10225000100A6FF0310103F05CFB18490880154942
:1022600091ED060ABDEEC00A10EE100A322103F00D
:1022700050FB13490880134A128891B2124AD06960
:1022800003F0AEFA1149088000201349088008467F
:10229000B0F900300D48B0F900200948B0F900103D
:1022A0000648B0F9000003F0EFF92DE0000000202F
:1022B00010000020680B0020FCFEFFFF180000202B
:1022C0001A00002020000020880A00201C000020A6
:1022D0009A000020C80000201E00002022000020DC
:1022E0000400002012000020240000201C0A00200E
:1022F00000231A461946184603F0C6F90520FE4980
:1023000008600020FD49088030E00620FA49086096
:102310002CE00720F849086028E00820F64908600A
:1023200024E00920F449086020E00A20F24908600E
:102330001CE003F0A9F80B20EF49086016E0EF4815
:102340000088962805DAED480088401CEB49088093
:1023500005E00C20E84908600020E849088005E015
:1023600003F014F80D20E449086000BF00BF10BD61
:10237000704770477047704710B5E148007840B328
:10238000E0480078012824D0DF4890ED050ADFED11
:10239000DF0AB4EEE00AF1EE10FA1ADA90ED060A5E
:1023A000DFEDDA0AB4EEE00AF1EE10FA11DA90EDA0
:1023B000050ADFEDD70AB4EEE00AF1EE10FA08D90B
:1023C00090ED060ADFEDD20AB4EEE00AF1EE10FA63
:1023D00006D80120CB490870FFF79DFE01F0DCBF55
:1023E000C7480078282806DACA480078022802D0B0
:1023F000FEF73CF9F2E7C7480078022803D0C0484E
:1024000000782828EADBC4480068401C38B9BC487A
:1024100000782738C04908600220BE490870BE48CD
:102420000068012807D0BC480068042803D0BA48D7
:10243000006805287ED140F2DC51B848A0F842106F
:10244000B74800680C2811D2DFE800F006112E42D0
:1024500053F6F4F3F2F1F0EF40F2DC51AF48A0F89C
:10246000421003F094F90120AD4908604FE2AD48F5
:102470000088B0F57A7F05DAAA480088401CA9498F
:10248000088010E0A7480088B0F57A7F0BDB9C48F5
:102490000078032807D10020A24908800220A04923
:1024A000086002F057FF32E29E480088642805DA8F
:1024B0009C480088401C9B49088008E000209949FE
:1024C0000880032096490860912002F0BCFF1EE2BC
:1024D00094480088642805DA92480088401C914995
:1024E000088005E000208F49088004208C4908609E
:1024F0000DE28C480088B0F5167F7ADA89480088AA
:10250000401C88490880804991ED050ABDEEC00A4B
:1025100010EE100A844903F0FCF9844908807A49D6
:1025200091ED060ABDEEC00A10EE100A002103F07C
:10253000F0F900E0ECE17E4908807E49C86991210C
:1025400003F04EF97C4908807C48B0F90030084619
:10255000B0F900207648B0F900107448B0F90000D6
:1025600003F092F86C480068012816D1664890ED97
:10257000050ADFED730AB4EEE00AF1EE10FA53D863
:1025800090ED050ADFED6F0AB4EEE00AF1EE10FA05
:102590004ADB01206C49087046E05F480068042867
:1025A00016D1594890ED050ADFED680AB4EEE00A4D
:1025B000F1EE10FA38D890ED050ADFED650AB4EEB9
:1025C000E00AF1EE10FA2FDB01205F4908702BE0E2
:1025D00051480068052827D14B4890ED050ADFEDEA
:1025E0005D0AB4EEE00AF1EE10FA1DD890ED050A8E
:1025F00000E00AE0DFED580AB4EEE00AF1EE10FA6E
:1026000012DB0120504908700EE000231A461946DB
:10261000184603F039F801204B490870052040495D
:10262000086000203F49088071E16AE155E14EE110
:1026300007E1C0E046E0FFE73A480088B0F52F7FA9
:1026400033DA38480088401C364908802E4991ED1D
:10265000050ABDEEC00A10EE100A334903F059F91D
:1026600032490880284991ED060ABDEEC00A10EEF5
:10267000100A4FF4AF7103F04CF92D4908802D4931
:10268000C869912103F0ACF82B4908802B48B0F9B8
:1026900000300846B0F900202548B0F90010234862
:1026A000B0F9000002F0F0FF0BE000231A461946D3
:1026B000184602F0E9FF0620194908600020194970
:1026C000088024E117480088642867DA15480088E4
:1026D000401C144908800C4991ED050ABDEEC00A62
:1026E00010EE100A6FF0F90103F013F90F4908809A
:1026F000054991ED060A31E000000020100000209D
:10270000BA01002027000020680B002000007A4456
:1027100000007AC4300000202C0000201C0A002099
:102720000C00002016000020F2FEFFFF1800002021
:102730001A000020880A00201C0000201E00002033
:10274000000070C20000A0C2280000200000DCC20F
:10275000000002C3000020C3000034C3BDEEC00A65
:1027600010EE100A4FF4AF7103F0D3F8FE49088061
:10277000FE49C869912103F033F8FD490880FD48FE
:10278000B0F900300846B0F90020F748B0F9001061
:10279000F948B0F9000002F077FF0BE000231A4679
:1027A0001946184602F070FF0720F449086000201F
:1027B000F3490880ABE0F2480088962834DAF04804
:1027C0000088401CEE490880EE4991ED050ABDEEF7
:1027D000C00A10EE100A6FF0F90103F09AF8E6490A
:1027E0000880E84991ED060ABDEEC00A10EE100A15
:1027F0004FF4AF7103F08DF8DB490880DB49C869FD
:10280000322102F0EDFFDA490880DA48B0F90030F1
:102810000846B0F90020D448B0F90010D648B0F905
:10282000000002F031FF0BE000231A46194618465B
:1028300002F02AFF0820D14908600020D049088012
:1028400065E0CF480088962834DACD480088401CDF
:10285000CB490880CB4991ED050ABDEEC00A10EEC8
:10286000100A6FF0F90103F054F8C3490880C54914
:1028700091ED060ABDEEC00A10EE100A4FF4AF71DA
:1028800003F047F8B8490880B849C869322102F016
:10289000A7FFB7490880B748B0F900300846B0F93B
:1028A0000020B148B0F90010B348B0F9000002F0C0
:1028B000EBFE0BE000231A461946184602F0E4FE30
:1028C0000920AE4908600020AD4908801FE002F0F1
:1028D000DBFD0A20A949086019E0A9480088AA4937
:1028E000B1F90010884205DAA5480088401CA449C7
:1028F000088005E00B20A14908600020A04908805D
:1029000005E002F043FD0C20A049086000BF65E52A
:102910009F480068022807D09D480068032803D01C
:102920009B48006806287CD140F2DC519948A0F809
:102930004210924800680B2811D2DFE800F006111F
:102940002E4253F5F3F2F1F0EF0040F2DC519148E2
:10295000A0F8421002F01BFF012088490860F4E152
:1029600087480088B0F57A7F05DA85480088401CE2
:102970008349088010E082480088B0F57A7F0BDB3D
:1029800085480078032807D100207D49088002206F
:102990007A49086002F0DEFCD7E1794800886428B3
:1029A00005DA77480088401C7549088008E0002057
:1029B00073490880032071490860642002F043FDD8
:1029C000C3E16F480088642805DA6D480088401C20
:1029D0006B49088005E000206949088004206749A8
:1029E0000860B2E166480088B0F5167F7EDA644878
:1029F0000088401C62490880624991ED050ABDEEDD
:102A0000C00A10EE100A654902F083FF5A49088097
:102A10005C4991ED060ABDEEC00A10EE100A0021D5
:102A200000E093E102F075FF4F4908804F49C86903
:102A3000642102F0D5FE4E4908804E48B0F90030BE
:102A40000846B0F900204848B0F900104A48B0F9EB
:102A5000000002F019FE4E480068012816D14948CE
:102A600090ED050A5FEDCA0AB4EEE00AF1EE10FA45
:102A700053D890ED050A5FEDCD0AB4EEE00AF1EE11
:102A800010FA4ADB01204649087046E040480068D9
:102A9000042816D13B4890ED050A5FEDD40AB4EE48
:102AA000E00AF1EE10FA38D890ED050A5FEDD80A89
:102AB000B4EEE00AF1EE10FA2FDB0120384908707D
:102AC0002BE033480068052827D12E4890ED050AF1
:102AD0005FEDE00AB4EEE00AF1EE10FA1DD890EDD9
:102AE000050A5FEDE30AB4EEE00A00E006E0F1EE6D
:102AF00010FA12DB01202A4908700EE000231A4662
:102B00001946184602F0C0FD01202549087005202D
:102B10001A49086000201A49088016E10FE1FAE01E
:102B2000F3E0ACE065E0FFE715480088B0F52F7FE3
:102B300052DA13480088401C11490880114991ED70
:102B4000050ABDEEC00A10EE100A144902F0E1FEBB
:102B5000094908800B4991ED060ABDEEC00A10EE46
:102B6000100A4FF4AF711DE01A000020880A0020FF
:102B70001C0000201E000020180000200C00002077
:102B800016000020680B002022000020000000201A
:102B90002C0000201C0A0020BA010020F2FEFFFFDA
:102BA0002800002002F0B5FEFE490880FE49C869F1
:102BB000642102F015FEFD490880FD48B0F900309F
:102BC0000846B0F90020F748B0F90010F948B0F90C
:102BD000000002F059FD0BE000231A461946184682
:102BE00002F052FD0620F44908600020F3490880F5
:102BF000ABE0F2480088642834DAF0480088401CD2
:102C0000EE490880EE4991ED050ABDEEC00A10EECE
:102C1000100A6FF0F90102F07CFEE6490880E849ED
:102C200091ED060ABDEEC00A10EE100A4FF4AF7126
:102C300002F06FFEDB490880DB49C869642102F0BD
:102C4000CFFDDA490880DA48B0F900300846B0F91B
:102C50000020D448B0F90010D648B0F9000002F0C6
:102C600013FD0BE000231A461946184602F00CFD2E
:102C70000720D14908600020D049088065E0CF488E
:102C80000088962834DACD480088401CCB4908805B
:102C9000CB4991ED050ABDEEC00A10EE100A6FF0A7
:102CA000F90102F036FEC3490880C54991ED060AD4
:102CB000BDEEC00A10EE100A4FF4AF7102F029FE0B
:102CC000B8490880B849C869322102F089FDB7497E
:102CD0000880B748B0F900300846B0F90020B14884
:102CE000B0F90010B348B0F9000002F0CDFC0BE0E1
:102CF00000231A461946184602F0C6FC0820AE49C1
:102D000008600020AD4908801FE002F0BDFB0920EB
:102D1000A949086019E0A9480088AA49B1F900103A
:102D2000884205DAA5480088401CA449088005E0CF
:102D30000A20A14908600020A049088005E002F0AF
:102D400025FB0B20A049086000BFE0E59F48006814
:102D5000162807D09D480068172803D09B480068B4
:102D600018287DD140F2DC519948A0F842109248D1
:102D700000680B2811D2DFE800F006112E4253F450
:102D8000F2F1F0EFEE0040F2DC519148A0F8421071
:102D900002F0FDFC012088490860A5E28748008810
:102DA000B0F57A7F05DA85480088401C83490880A1
:102DB00010E082480088B0F57A7F0BDB8548007808
:102DC000032807D100207D49088002207A49086045
:102DD00002F0C0FA88E279480088642805DA77486A
:102DE0000088401C7549088008E00020734908806D
:102DF0000320714908608C2002F025FB74E26F48C3
:102E00000088642805DA6D480088401C6B490880FA
:102E100005E000206949088004206749086063E2F2
:102E20006648008864287CDA64480088401C63494E
:102E30000880634991ED050ABDEEC00A10EE100A44
:102E4000282102F066FD5B4908805D4991ED060A84
:102E5000BDEEC00A10EE100A002102F05AFD00E09B
:102E600043E2504908805049C8698C2102F0B8FCFF
:102E70004E4908804E48B0F900300846B0F90020AD
:102E80004848B0F900104B48B0F9000002F0FCFBD4
:102E90004E480068012816D1494890ED050ADFED3B
:102EA0004E0AB4EEE00AF1EE10FA53D890ED050A9E
:102EB000DFED4A0AB4EEE00AF1EE10FA4ADB012037
:102EC0004749087046E041480068042816D13C484C
:102ED00090ED050ADFED430AB4EEE00AF1EE10FAD8
:102EE00038D890ED050ADFED400AB4EEE00AF1EEC5
:102EF00010FA2FDB01203A4908702BE033480068B4
:102F0000052827D12E4890ED050ADFED380AB4EEEA
:102F1000E00AF1EE10FA1DD890ED050ADFED340A53
:102F200000E008E0B4EEE00AF1EE10FA12DB012056
:102F30002B4908700EE000231A461946184602F085
:102F4000A3FB01202649087005201B4908600020CA
:102F50001A490880C8E1C1E1ACE1A5E15EE1C4E045
:102F6000FFE71648008840F28A21884276DA134843
:102F70000088401C11490880114991ED050ABDEEF9
:102F8000C00A10EE100A282102F0C3FC094908808B
:102F90000B4991ED060ABDEEC00A10EE100A4FF47F
:102FA000AF7127E01A000020880A00201C000020D2
:102FB0001E000020180000200C0000201600002039
:102FC000680B002022000020000000202C000020C0
:102FD0001C0A0020BA01002000008CC20000A0C220
:102FE000280000200000F0C2000002C300002AC335
:102FF000000034C302F08DFCFE490880FE49C86918
:103000008C2102F0EDFBFD490880FD48B0F900304D
:103010000846B0F90020F748B0F90010F948B0F9B7
:10302000000002F031FBF8480068012817D1F7488A
:1030300090ED050A5FED180AB4EEE00AF1EE10FA21
:1030400052D890ED050A5FED1B0AB4EEE00AF1EEEE
:1030500010FA49DB0120EE49087045E035E0EA4806
:103060000068042816D1E94890ED050A5FED230AAF
:10307000B4EEE00AF1EE10FA36D890ED050A5FEDF5
:10308000260AB4EEE00AF1EE10FA2DDB0120E04949
:10309000087029E0DC480068052825D1DB4890ED60
:1030A000050A5FED2E0AB4EEE00AF1EE10FA1BD825
:1030B00090ED050A5FED320AB4EEE00AF1EE10FA87
:1030C00012DB0120D24908700EE000231A4619468F
:1030D000184602F0D9FA0120CD4908700620CD49E2
:1030E00008600020CC490880FEE0CB480088B0F59D
:1030F000FA7F7ADAC8480088401CC7490880C3496B
:1031000091ED050ABDEEC00A10EE100A6FF0F9014C
:1031100002F0FFFBBB490880BC4991ED060ABDEEF9
:10312000C00A10EE100A4FF4AF7102F0F2FBB14981
:103130000880B149C8698C2102F052FBAF49088070
:10314000AF48B0F900300846B0F90020A948B0F9FE
:103150000010AC48B0F9000002F096FAAA480068E6
:10316000182816D1A94890ED050ADFEDAC0AB4EE97
:10317000E00AF1EE10FA50D890ED050A5FED690A09
:10318000B4EEE00AF1EE10FA47DB0820A04908701F
:1031900043E09D480068172816D19C4890ED050A29
:1031A000DFED9F0AB4EEE00AF1EE10FA35D890EDAB
:1031B000050A5FED730AB4EEE00AF1EE10FA2CDBBB
:1031C00008209349087028E08F480068162824D109
:1031D0008E4890ED050ADFED930AB4EEE00AF1EEB9
:1031E00010FA1AD890ED050A00E00AE05FED800AB7
:1031F000B4EEE00AF1EE10FA0FDB08208449087003
:103200000BE000231A461946184602F03DFA072043
:103210008049086000208049088065E07E48008879
:10322000642834DA7C480088401C7B490880774950
:1032300091ED050ABDEEC00A10EE100A6FF0F9011B
:1032400002F067FB6F490880704991ED060ABDEEF8
:10325000C00A10EE100A4FF4AF7102F05AFB654934
:1032600008806549C869322102F0BAFA63490880CA
:103270006348B0F900300846B0F900205D48B0F965
:1032800000106048B0F9000002F0FEF90BE00023E6
:103290001A461946184602F0F7F908205D490860F9
:1032A00000205D4908801FE002F0EEF8092059492E
:1032B000086019E0584800885B49B1F9001088425D
:1032C00005DA55480088401C5349088005E00A206B
:1032D0005049086000205049088005E002F056F887
:1032E0000B205249086000BF2FE5474800681328AB
:1032F00007D045480068142803D0434800681528C3
:1033000076D140F2DC514A48A0F8421041480068AA
:103310000B2811D2DFE800F006112E4253BFFDFC4E
:10332000FBFAF90040F2DC514148A0F8421002F0EB
:103330002EFA012037490860FBE137480088B0F5D4
:103340007A7F05DA34480088401C3349088010E051
:1033500031480088B0F57A7F0BDB364800780328C7
:1033600007D100202C49088002202A49086001F07A
:10337000F1FFDEE128480088642805DA2648008845
:10338000401C2549088008E00020234908800320CC
:1033900020490860642002F056F8CAE11E480088FF
:1033A000642805DA1C480088401C1B49088005E099
:1033B000002019490880042016490860B9E1164820
:1033C0000088642857DA14480088401C1249088095
:1033D0000E4991ED050ABDEEC00A10EE100A282133
:1033E00002F097FA07490880084991ED060A23E0A0
:1033F000A0E100001A000020880A00201C00002024
:103400001E000020180000202C000020680B002067
:10341000280000200C00002016000020000070C2D0
:103420000000DCC2000020C32200002000000020B9
:103430001C0A0020BA010020BDEEC00A10EE100ADE
:10344000002102F066FAF7490880F749C86964214B
:1034500002F0C6F9F5490880F548B0F90030084691
:10346000B0F90020EF48B0F90010F248B0F90000C0
:1034700002F00AF90EE000231A461946184602F037
:1034800003F90120EC4908700520EC490860002090
:10349000EB4908804DE1EA48008840F28A218842E1
:1034A00038DAE7480088401CE5490880E54991ED95
:1034B000050ABDEEC00A10EE100A282102F029FA12
:1034C000DC490880DF4991ED060ABDEEC00A10EE26
:1034D000100A4FF4AF7102F01CFAD2490880D249A9
:1034E000C869642102F07CF9D0490880D048B0F95D
:1034F00000300846B0F90020CA48B0F90010CD48A5
:10350000B0F9000002F0C0F813E00CE1F7E0F0E0E1
:10351000A9E00FE000231A461946184602F0B4F855
:103520000120C54908700620C44908600020C4492C
:103530000880FEE0C2480088B0F5FA7F7EDAC04815
:103540000088401CBE490880BE4991ED050ABDEEC9
:10355000C00A10EE100A6FF0F90102F0DAF9B5496D
:103560000880B84991ED060ABDEEC00A10EE100AB7
:103570004FF4AF7102F0CDF9AA490880AA49C86991
:10358000642102F02DF9A9490880A948B0F900305A
:103590000846B0F90020A348B0F90010A548B0F9DA
:1035A000000002F071F8A8480068152816D1A54857
:1035B00090ED050A5FED670AB4EEE00AF1EE10FA4D
:1035C00050D890ED050ADFEDA10AB4EEE00AF1EE65
:1035D00010FA47DB08209849087043E09A480068D1
:1035E000142816D1974890ED050A5FED730AB4EEE2
:1035F000E00AF1EE10FA35D890ED050ADFED940AF5
:10360000B4EEE00AF1EE10FA2CDB08208A490870CB
:1036100028E08D480068132824D18A4890ED050AD7
:103620005FED800AB4EEE00AF1EE10FA1AD890EDE0
:10363000050ADFED880AB4EEE00A00E006E0F1EEEC
:1036400010FA0FDB08207C4908700BE000231A46B3
:103650001946184602F018F807207849086000203B
:103660007749088065E076480088642834DA744831
:103670000088401C72490880724991ED050ABDEE30
:10368000C00A10EE100A6FF0F90102F042F9694920
:1036900008806C4991ED060ABDEEC00A10EE100AD2
:1036A0004FF4AF7102F035F95E4908805E49C86990
:1036B000322102F095F85D4908805D48B0F900308C
:1036C0000846B0F900205748B0F900105948B0F941
:1036D000000001F0D9FF0BE000231A4619461846F6
:1036E00001F0D2FF082055490860002054490880A5
:1036F0001FE001F0C9FE09205049086019E0504858
:1037000000885549B1F90010884205DA4C48008814
:10371000401C4B49088005E00A2048490860002009
:103720004749088005E001F031FE0B204B49086055
:1037300000BFD9E544480068082813D04248006813
:1037400009280FD0404800680C280BD03E4800687C
:103750000D2807D03C480068102803D03A4800687C
:1037600011285ED140F2DC513D48A0F842103348A8
:1037700000680D2812D2DFE800F007122F4377BE51
:10378000FCFBFAF9F8F7F60040F2DC513448A0F8F7
:10379000421001F0FCFF012028490860F1E22848AE
:1037A0000088B0F57A7F05DA25480088401C244956
:1037B000088010E022480088B0F57A7F0BDB2948AA
:1037C0000078032807D100201D49088002201B49EA
:1037D000086001F0BFFDD4E219480088642805DACA
:1037E00017480088401C1649088008E0002014494A
:1037F0000880032011490860912001F024FEC0E2F6
:103800000F480088642805DA0D480088401C0C49E0
:10381000088005E000200A49088004200749086064
:10382000AFE2AFE21A000020880A00201C0000204E
:103830001E00002018000020280000200C0000209E
:1038400016000020680B00202C0000200000A0C201
:10385000000002C3000034C322000020000000204A
:103860001C0A0020BA010020FE480088642832DAD1
:10387000FC480088401CFB490880FB4991ED050A83
:10388000BDEEC00A10EE100A282102F042F8F749F6
:103890000880F54991ED060ABDEEC00A10EE100A47
:1038A000002102F036F8F2490880F249C8699121F6
:1038B00001F096FFF0490880F048B0F90030084662
:1038C000B0F90020EA48B0F90010E848B0F900006B
:1038D00001F0DAFE0EE000231A461946184601F000
:1038E000D3FE0120E64908700520E6490860002063
:1038F000DC49088045E2DB480088B0F5AF7F39DA63
:10390000D8480088401CD7490880D74991ED050A5E
:10391000BDEEC00A10EE100A282101F0FAFFD349CB
:103920000880D14991ED060ABDEEC00A10EE100ADA
:10393000AF2101F0EEFFCE490880CE49C869912140
:1039400001F04EFFCC490880CC48B0F90030084661
:10395000B0F90020C648B0F90010C448B0F9000022
:1039600001F092FE15E006E2F1E1EAE1A3E13FE1B8
:10397000F8E00FE000231A461946184601F084FECD
:103980000120BF4908700620BE4908600020B549E3
:103990000880F6E1B3480088B0F5FA7F7EDAB148D6
:1039A0000088401CAF490880AF4991ED050ABDEE83
:1039B000C00A10EE100AB44901F0ABFFAB49088011
:1039C000A94991ED060ABDEEC00A10EE100AAF211A
:1039D00001F09FFFA6490880A649C869912101F01E
:1039E000FFFEA5490880A548B0F900300846B0F9A7
:1039F00000209F48B0F900109C48B0F9000001F089
:103A000043FEA24800680C2816D1974890ED050A9D
:103A1000DFED9F0AB4EEE00AF1EE10FA0BD890ED5C
:103A2000050A5FED760AB4EEE00AF1EE10FA02DB69
:103A300008209349087094E094480068092816D13A
:103A4000894890ED050ADFED930AB4EEE00AF1EE45
:103A500010FA0BD890ED050A5FED830AB4EEE00A88
:103A6000F1EE10FA7DDB08208549087079E087487F
:103A70000068082818D17C4890ED050ADFED860A19
:103A8000B4EEE00AF1EE10FA6BD890ED050A5FEDA6
:103A90008F0AB4EEE00AF1EE10FA00E055E060DBC8
:103AA0000820774908705CE0784800680D2816D136
:103AB0006D4890ED050ADFED760AB4EEE00AF1EE0E
:103AC00010FA4ED890ED050A5FEDA00AB4EEE00AB8
:103AD000F1EE10FA45DB05206949087041E06B48BA
:103AE0000068102816D1604890ED050ADFED690ADC
:103AF000B4EEE00AF1EE10FA33D890ED050A5FED6E
:103B0000AC0AB4EEE00AF1EE10FA2ADB05205C49BB
:103B1000087026E05D480068112822D1524890EDD7
:103B2000050ADFED5D0AB4EEE00AF1EE10FA18D8EE
:103B300090ED050A5FEDB90AB4EEE00AF1EE10FA75
:103B40000FDB05204E4908700BE000231A4619468A
:103B5000184601F099FD07204A49086000204149B4
:103B600008800EE13F480088B0F5AF7F33DA3D486A
:103B70000088401C3B4908803B4991ED050ABDEE99
:103B8000C00A10EE100A404901F0C3FE3749088010
:103B9000354991ED060ABDEEC00A10EE100A4FF449
:103BA000AF7101F0B6FE324908803249C8699121EF
:103BB00001F016FE304908803048B0F90030084660
:103BC000B0F900202A48B0F900102848B0F90000E8
:103BD00001F05AFD0BE000231A461946184601F081
:103BE00053FD08202749086000201E490880C8E0CE
:103BF0001C480088962851DA1A480088401C194948
:103C00000880194991ED050ABDEEC00A10EE100AB0
:103C10006FF0F90101F07DFE14490880124991ED21
:103C2000060ABDEEC00A10EE100A4FF4AF7101F0A3
:103C300070FE0F4908800F49C869322101F0D0FD9C
:103C40000D4908800D48B0F900300846B0F9002051
:103C50000748B0F900100548B0F9000001F014FD64
:103C600028E0000016000020680B0020180000204B
:103C70001A000020880A00201C0000201E000020DE
:103C8000280000200C000020F2FEFFFF2C00002086
:103C9000000070C20000DCC2000020C300231A46EE
:103CA0001946184601F0F0FC0920FB490860002085
:103CB000FA49088065E0F9480088962834DAF74820
:103CC0000088401CF5490880F54991ED050ABDEED4
:103CD000C00A10EE100A6FF0F90101F01AFEF14966
:103CE0000880EF4991ED060ABDEEC00A10EE100AF9
:103CF0004FF4AF7101F00DFEEB490880EB49C86944
:103D0000322101F06DFDEA490880EA48B0F900303F
:103D10000846B0F90020E448B0F90010E148B0F9D5
:103D2000000001F0B1FC0BE000231A4619461846CA
:103D300001F0AAFC0A20D84908600020D749088071
:103D40001FE001F0A1FB0B20D349086019E0D34824
:103D50000088D949B1F90010884205DACF480088B7
:103D6000401CCE49088005E00C20CB4908600020AB
:103D7000CA49088005E001F009FB0D20CF49086021
:103D800000BF09E3CE480068072813D0CC4800687C
:103D90000A280FD0CA4800680B280BD0C848006812
:103DA0000E2807D0C64800680F2803D0C448006812
:103DB0001228E6D140F2DC51C248A0F84210B648C1
:103DC00000680D2812D2DFE800F007122F43549B41
:103DD000E3FEFDFCFBFAF90040F2DC51B948A0F823
:103DE000421001F0D4FC0120AB490860D3E2AB489B
:103DF0000088B0F57A7F05DAA8480088401CA749FA
:103E0000088010E0A5480088B0F57A7F0BDBAE484B
:103E10000078032807D10020A049088002209E498D
:103E2000086001F097FAB6E29C480088642805DA39
:103E30009A480088401C9949088008E0002097496A
:103E40000880032094490860642001F0FCFAA2E293
:103E500092480088642805DA90480088401C8F4901
:103E6000088005E000208D49088004208A49086008
:103E700091E28A480088642832DA88480088401C29
:103E800086490880864991ED050ABDEEC00A10EE0C
:103E9000100A282101F03DFD82490880804991EDFA
:103EA000060ABDEEC00A10EE100A002101F031FD35
:103EB0007D4908807D49C869642101F091FC7C49F5
:103EC00008807C48B0F900300846B0F900207648F8
:103ED000B0F900107348B0F9000001F0D5FB0EE016
:103EE00000231A461946184601F0CEFB00207749F8
:103EF00008700520684908600020684908804AE287
:103F000066480088B0F5AF7F32DA64480088401C0C
:103F100062490880624991ED050ABDEEC00A10EEC3
:103F2000100A282101F0F5FC5E4908805C4991EDFA
:103F3000060ABDEEC00A10EE100AAF2101F0E9FC3E
:103F4000594908805949C869642101F049FC584918
:103F500008805848B0F900300846B0F900205248AF
:103F6000B0F900104F48B0F9000001F08DFB0EE0F1
:103F700000231A461946184601F086FB00205349D3
:103F8000087006204449086000204449088002E285
:103F900042480088B0F5FA7F7DDA40480088401C2E
:103FA0003E4908803E4991ED050ABDEEC00A10EE7B
:103FB000100A474901F0ADFC3A4905E0E5E1D0E1DE
:103FC000C9E182E13BE1F4E00880354991ED060A60
:103FD000BDEEC00A10EE100AAF2101F09AFC324982
:103FE00008803249C869642101F0FAFB3049088031
:103FF0003048B0F900300846B0F900202A48B0F93E
:1040000000102848B0F9000001F03EFB2C48006881
:10401000072816D1224890ED050A5FEDE30AB4EEB9
:10402000E00AF1EE10FA0BD890ED050ADFED290A4F
:10403000B4EEE00AF1EE10FA02DB08202349087022
:10404000B6E01F4800680A2816D1154890ED050A09
:104050005FEDF00AB4EEE00AF1EE10FA0BD890ED45
:10406000050ADFED1D0AB4EEE00AF1EE10FA02DBFC
:104070000820164908709BE0114800680B283AD1C7
:10408000074890ED050A5FEDFC0AB4EEE00AF1EE98
:1040900010FA2FD822E07FE00C000020160000204C
:1040A000680B0020180000201A000020880A002059
:1040B0001C0000201E000020220000200000002024
:1040C0002C0000201C0A0020BA010020280000203B
:1040D000F2FEFFFF0000A0C2000002C390ED050A3F
:1040E000DFEDD60AB4EEE00AF1EE10FA60DB08204C
:1040F000D34908705CE0D34800680E2816D1D24836
:1041000090ED050ADFEDD10AB4EEE00AF1EE10FA07
:104110004ED890ED050A5FED110AB4EEE00AF1EE1B
:1041200010FA45DB0520C649087041E0C548006823
:104130000F2816D1C44890ED050ADFEDC50AB4EE8C
:10414000E00AF1EE10FA33D890ED050A5FED1E0A91
:10415000B4EEE00AF1EE10FA2ADB0520B849087047
:1041600026E0B8480068122822D1B74890ED050A29
:10417000DFEDB80AB4EEE00AF1EE10FA18D890EDCF
:10418000050ADFEDAE0AB4EEE00AF1EE10FA0FDB3D
:104190000520AB4908700BE000231A461946184663
:1041A00001F072FA0720AC4908600020AB49088092
:1041B000F1E0AA480088B0F5AF7F33DAA74800885D
:1041C000401CA6490880A04991ED050ABDEEC00A31
:1041D00010EE100AA24901F09CFBA24908809A49FE
:1041E00091ED060ABDEEC00A10EE100A4FF4AF7151
:1041F00001F08FFB9C4908809C49C869642101F04B
:10420000EFFA9B4908809B48B0F900300846B0F9A6
:1042100000209548B0F900109248B0F9000001F074
:1042200033FA0BE000231A461946184601F02CFA1F
:10423000072089490860002088490880ABE087484A
:104240000088962834DA85480088401C8349088015
:104250007D4991ED050ABDEEC00A10EE100A6FF01F
:10426000F90101F056FB7F490880774991ED060A74
:10427000BDEEC00A10EE100A4FF4AF7101F049FB19
:10428000794908807949C869322101F0A9FA784949
:1042900008807848B0F900300846B0F9002072482C
:1042A000B0F900106F48B0F9000001F0EDF90BE033
:1042B00000231A461946184601F0E6F90920664916
:1042C000086000206549088065E0644800889628F9
:1042D00034DA62480088401C604908805A4991EDF0
:1042E000050ABDEEC00A10EE100A6FF0F90101F0E8
:1042F00010FB5C490880544991ED060ABDEEC00AE6
:1043000010EE100A4FF4AF7101F003FB564908801C
:104310005649C869322101F063FA55490880554869
:10432000B0F900300846B0F900204F48B0F900104D
:104330004C48B0F9000001F0A7F90BE000231A4641
:104340001946184601F0A0F90A20434908600020E8
:10435000424908801FE001F097F80B203E490860B1
:1043600019E03E4800884449B1F90010884205DA56
:104370003A480088401C3949088005E00C2036493D
:10438000086000203549088005E000F0FFFF0D209F
:104390003A49086000BF00BF10BD10B502F0E3FF4E
:1043A00010BD7047002000BF1FE000EB4001344A01
:1043B00002EB810189884FF47A7292FBF1F100EBF4
:1043C00040022F4B03EB8202D18000EB40011A46E2
:1043D00002EB8101C988012905DA012100EB4002C5
:1043E00003EB8202D180411CC8B20728DDD370479D
:1043F00070B5002400BF1EE003F026F9054604EB6B
:1044000044001F4901EB80008068281A04EB440136
:104410001B4A02EB8101C98888420AD304EB44009D
:10442000114601EB8000856004EB440152F8210045
:104430008047601CC4B2072CDED370BD000034C3BB
:10444000280000202C000020680B0020000070C213
:104450000000DCC2000020C30C0000201600002079
:10446000F2FEFFFF180000201A000020880A00203A
:104470001C0000201E000020220000200000002060
:104480003C000020FF20F74981F84E006421F548E8
:10449000A0F850100121A0F85210FF20F14981F836
:1044A00080011421EF48A0F882110021A0F88411A6
:1044B000FF20EC4981F8A6050A21EA48A0F8A815D2
:1044C0000221A0F8AA15FF20E64981F82001002169
:1044D000E448A0F82211A0F82411FF20E14981F856
:1044E00032010021DF48A0F83411A0F83611FF2076
:1044F000DC4981F838010021DA48A0F83A11A0F827
:104500003C11FF20D74981F886010021D548A0F849
:104510008811A0F88A11FF20D24981F840050021B6
:10452000D048A0F84215A0F84415FF20CD4981F8E5
:104530004C050021CB48A0F84E15A0F85015704747
:1045400070B504460D462946204604F054FA70BD65
:10455000C44A10700122C34B5A707047C14A82F896
:104560004C05012382F84D3570472DE9F041044692
:104570000D4600260027E178A81F814201D0BDE842
:10458000F081002006E0215C3144CEB2B919CFB2EF
:10459000411CC8B2A91E8142F5DC601910F8020C5A
:1045A000B04204D1601910F8010CB84200D0E6E71F
:1045B0002078AA2805D16078612803D06078FF2888
:1045C00000D0DCE7A078202811D1A088A649088077
:1045D000E0884880208988806089C880A089088117
:1045E000E0894881208A8881608AC881BAE0A07801
:1045F0000F280DD1207940B29C490870607940B2F3
:104600004870A07940B28870E07940B2C870A9E0E3
:10461000A07806280CD12079954948706079C87037
:10462000A0790871E17992484171217A817199E00C
:10463000A07807280AD1002005E0211D095C8D4AD9
:104640001154411CC8B20628F7DB8BE0A078032880
:104650000AD1002005E0211D095C874A1154411C44
:10466000C8B20728F7DB7DE0A07803280AD1002034
:1046700005E0211D095C814A1154411CC8B209287A
:10468000F7DB6FE0A07801286CD0A078E0282AD171
:104690002079012806D0022808D010280AD0112835
:1046A00010D10BE00020764908700CE0002074491E
:1046B000087008E000207249087004E0002070498A
:1046C000087000E000BF00BF2079664981F80C0641
:1046D000084680F80D6680F80E7600F20C61AF2077
:1046E000FFF736FF3EE0A078B0B95E4890F80F06BD
:1046F0002179884236D15B4890F81006617988426A
:1047000030D1584890F81106A17988422AD100206A
:10471000544981F8000625E0A078E12811D12179DB
:10472000607901EB00201FFA80F84E48A0F814864B
:104730000021C0F8181600F21461FF20FFF70EFFE9
:1047400010E0A078E2280DD12079464981F80C06C6
:10475000084680F80D6680F80E7600F20C61FF20A6
:10476000FFF7F6FE00BF0AE710B50446454800789B
:1047700038B9AA2C05D1012042490870424804707A
:104780008DE040480078012809D1612C01D0FF2C30
:1047900005D102203B4908703B4844707FE039480E
:1047A0000078022805D10320364908703648847005
:1047B00075E03448007803280CD1FA2C0ADA04207A
:1047C000304908703048C4703048047000203049C7
:1047D000087064E02B480078042819D12B48007831
:1047E000002815DD29480078401E2849087028480F
:1047F000007827490978491C254A1170001D224973
:104800000C542248007858BB05201E49087046E029
:104810001C48007805280DD106201A4908701C484C
:1048200000781B490978491C194A1170001D164966
:104830000C5434E01348007806282DD1002011498B
:10484000087013480078001D0F490C541048007878
:10485000401D10490870084601780B48FFF785FE97
:104860001DE00000540200207E090020D00100203D
:10487000100A0020A10000209A0000208E090020CC
:10488000BA0100209400002070080020920000204F
:1048900093000020900000200020FA49087010BD0D
:1048A0007CB50346402B61D00BDC302B35D003DCCC
:1048B00083B10D2B74D123E0332B3BD0342BF9D1B2
:1048C00046E0412B5FD0E02B6DD0E22B7FD0F12B67
:1048D000F0D1AAE0EC4890F80C460D78681C0870FE
:1048E0005455E94890F80D460D78681C08705455E9
:1048F000E54890F80E460D78681C087054551AE18A
:10490000002007E0E14C255C0E78741C0C70955576
:10491000441CE0B20428F5DB0DE1002007E0DC4C8C
:10492000255C0E78741C0C709555441CE0B2172859
:10493000F5DB00E1002008E0D54C193C255C0E7841
:10494000741C0C709555441CE0B20628F4DBF2E0B0
:10495000002008E0CE4CE41F255C0E78741C0C701F
:104960009555441CE0B20728F4DBE4E0002007E0A2
:10497000C84C255C0E78741C0C709555441CE0B234
:104980001428F5DBD7E0002007E0C34C255C0E7847
:10499000741C0C709555441CE0B20E28F5DBCAE07F
:1049A000C8E000E013E0B84890F801460D78681CB4
:1049B00008705455002007E0B84C255C0E78741C34
:1049C0000C709555441CE0B20A28F5DBB3E0AE4804
:1049D000B0F8140600B201909DF804400D78681CF0
:1049E000087054559DF805400D78681C08705455A2
:1049F000A548D0F8180600909DF800400D78681C76
:104A0000087054559DF801400D78681C0870545585
:104A10009DF802400D78681C087054559DF80340BD
:104A20000D78681C0870545585E09D4890ED020A89
:104A3000F7EE000A20EE200ABDEEC00A10EE100AC2
:104A400000B201909DF804400D78681C0870545520
:104A50009DF805400D78681C08705455904890EDFD
:104A6000030AF7EE000A20EE200ABDEEC00A10EE9F
:104A7000100A00B201909DF804400D78681C08707F
:104A800054559DF805400D78681C087054558448AD
:104A900090ED050AF7EE000A20EE200ABDEEC00AEE
:104AA0008DED000A9DF800400D78681C0870545583
:104AB0009DF801400D78681C087054559DF802401F
:104AC0000D78681C087054559DF803400D78681CDB
:104AD00008705455724890ED060AF7EE000A20EE71
:104AE000200ABDEEC00A8DED000A9DF800400D7849
:104AF000681C087054559DF801400D78681C0870BA
:104B000054559DF802400D78681C087054559DF866
:104B100003400D78681C08705455624804780D787D
:104B2000681C08705455604804780D78681C08703B
:104B3000545500E000BF00BF7CBDF8B504460F46E9
:104B400000200090AA219DF80020501CC0B20090C7
:104B50005648815439789DF80020501CC0B200900E
:104B6000524881549DF80010481CC0B200904F4834
:104B7000445400219DF80020501CC0B200904B48C6
:104B80008154024669462046FFF78AFE9DF80000E0
:104B9000001F4649C87000250026002007E0434951
:104BA000095C2944CDB27119CEB2411CC8B29DF83E
:104BB00000108842F3DB9DF80010481CC0B2009042
:104BC0003A4845549DF80010481CC0B20090374840
:104BD00046542D4890F8000640B1E02C06D12A48F2
:104BE00080F80F4680F8105680F811669DF8001086
:104BF0002E48FFF7A5FCF8BD10B5044604EB4400B1
:104C0000214901EB4000408828B304EB440001EB4C
:104C10004000808804EB44011B4A02EB41014988B3
:104C200088420CDA04EB4400114601EB4000808816
:104C3000401C04EB440102EB410188800BE00120A1
:104C400004EB4401104A02EB4101888004EB44016B
:104C500002EB4101487004EB44000B4901EB4000BA
:104C6000407868B1002004EB4401074A02EB41019F
:104C7000487004EB440002EB40012046FFF75DFF63
:104C800010BD000094000020540200209600002077
:104C9000C1090020560A0020700900205608002093
:104CA000680B0020BA01002028000020200200200C
:104CB0002E4A82F84005012382F8413501222B4B10
:104CC00083F80026704710B52DED028BB0EE408AB8
:104CD00000F01EF83020FFF78FFF3320FFF78CFF26
:104CE0003420FFF789FF4020FFF786FF4120FFF7C0
:104CF00083FFE020FFF780FFE220FFF77DFF0D201C
:104D0000FFF77AFFF120FFF777FFBDEC028B10BDB4
:104D1000164890F80006012821D11548007832285D
:104D200005DA13480078401C114908701CE0002087
:104D30000F4908700F480078401C0E49087008465B
:104D40000078052804DA0121084880F841150BE0B5
:104D5000002008490870054981F8000604E0002099
:104D6000034908700349087070470000540200208E
:104D7000950000209100002000B52DED028B85B03C
:104D8000B0EE408AF94890F8390000287DD1F74804
:104D9000B0F94200B0F5966F06DA012000F012FB80
:104DA0000120F349087013E0F048B0F9420040F2E6
:104DB000A461884206DA022000F004FB0220EC49DC
:104DC000087005E0032000F0FDFA0320E8490870B0
:104DD000E7484078E649097888420BD0E4480078F3
:104DE000E349487008460078032803D108468078D4
:104DF000401C8870DE48807810B3DE480088B0F52B
:104E0000FA6F10DADB48008800EE100AB8EE400AAC
:104E1000DFEDD90A00EE880ABCEEC00A10EE100AD7
:104E2000D44908800CE0D2498978032901DB00F0DD
:104E3000F1FA20B10021CF4A1180CD4A917000BF14
:104E4000CA48B0F93A00A0F2DC5000EE900AF8EE41
:104E5000E00AB0EE600A9FEDC91ADFEDC90A01F061
:104E6000B5FB8DED010AC148B0F93C00A0F2DC5061
:104E700000EE900AF8EEE00AB0EE600A9FEDBF1A6D
:104E8000DFEDBF0A01F0A2FB00E087E08DED020A32
:104E9000B648B0F93E00A0F2DC5000EE900AF8EE01
:104EA000E00AB0EE600A9FEDB71ADFEDB50A01F037
:104EB0008DFB8DED030AAD48B0F94000A0F2DC5047
:104EC00000EE900AF8EEE00AB0EE600A9FEDAD1A2F
:104ED000DFEDAB0A01F07AFB8DED040AAA480078F9
:104EE00058B19FEDA70A8DED010A9FEDA50A8DED42
:104EF000020A9FEDA30A8DED040A9DED010ADFED84
:104F0000A30A20EE200ADFEDA20A20EE200ABDEE61
:104F1000C00A10EE100A00B29E4908809DED020AF8
:104F2000B1EE400ADFED990A20EE200ADFED980A83
:104F300020EE200ABDEEC00A10EE100A00B2488032
:104F40008A48C08FA0F57A7000B288809DED040A6F
:104F5000B1EE400ADFED900A20EE200ADFED8F0A65
:104F600020EE200ABDEEC00A10EE100A00B2C88082
:104F70008B48B0F9000008818A48B0F900004881E8
:104F80008948B0F9000088810121884880F887119C
:104F9000002087490870874908701EE08648C0785D
:104FA00078B18348007828B9032000F00BFA8049D3
:104FB000087006E07F48007818B900F02BFA7D49A8
:104FC000087000207349088048804FF4AF708880D3
:104FD0000020C88088814881088105B0BDEC028B23
:104FE00000BD10B504467548008800EE100AB8EE02
:104FF000400ADFED730A20EE200ABDEEC00A10EE73
:10500000100A00B26F4908806C48408800EE100A10
:10501000B8EE400ADFED6A0A20EE200ABDEEC00AB3
:1050200010EE100A00B248806448808800EE100A32
:10503000B8EE400ADFED620A20EE200ABDEEC00A9B
:1050400010EE100A00B288805C48C08800EE100A9A
:10505000B8EE400ADFED5A0A20EE200ABDEEC00A83
:1050600010EE100A00B2C8805448008900EE100A01
:10507000B8EE400ADFED520A20EE200ABDEEC00A6B
:1050800010EE100A00B208814C48408900EE100A68
:10509000B8EE400ADFED4A0A20EE200ABDEEC00A53
:1050A00010EE100A00B248814448808900EE100AD0
:1050B000B8EE400ADFED420A20EE200ABDEEC00A3B
:1050C00010EE100A00B288813C48C08900EE100A38
:1050D000B8EE400ADFED3A0A20EE200ABDEEC00A23
:1050E00010EE100A00B2C8813748007818B90120C4
:1050F0003549087027E0E4B1002017E0314931F963
:105100001010002901DC00210BE02E4931F91010AC
:10511000B1F57A7F02DD4FF47A7102E0294931F965
:105120001010284A22F81010411CC8B20828E5DBEC
:1051300009E0002005E00021224A22F81010411C5D
:10514000C8B20828F7DB1F4802F0B3FD10BD10B548
:1051500002F04CFBDFED1D0A20EE200ABCEEC00A77
:1051600010EE100A1A49088010BD00001C0A002029
:10517000A9000020AC00002000007A44000020427A
:10518000000000000000A042C20000208F360E3B4D
:1051900000C05A4570090020C6F91B3B0000484377
:1051A000B8000020BA000020BC00002054020020FB
:1051B000A7000020A8000020100A00207E0900207F
:1051C000CDCCCC3D98090020AE0000200000C842A4
:1051D0009600002010B523480088401C2149088013
:1051E000084600880A2190FBF1F201FB12001D49DC
:1051F00008800846008810BB9FED1B0A00F032FFB4
:105200009FED190AFFF7B8FD9FED170A00F020FD8A
:105210009FED150A01F014FC12484088401C11490A
:105220004880084640880A2190FBF1F201FB1200F9
:105230000C4948800846408808B9FFF788FF03F00A
:1052400059FC012001F09CFD9FED080A00F010F8C8
:105250009FED060AFFF737FD0120FFF7C2FE02F0BF
:1052600086FB10BDB00000200AD7233C6F12833AA2
:1052700010B52DED028BB0EE408A00F020F800BF93
:105280002D4840782D490978884214D02A48407822
:105290002A49087000202A4988744FF487712848E9
:1052A000A0F813102448C1692548C0F81510012141
:1052B000244880F8391100BFBDEC028B10BD224894
:1052C0000078FF2804D020480078401C1E49087050
:1052D000194800781D490978884216D01648007888
:1052E0001A4908701448007A50B11348C07838B190
:1052F00011484089124908800F488089488004E09D
:105300004FF400400E49088048800B48407810490F
:10531000097888420ED0084840780D4908704FF44B
:105320000040074988800121064880F83311002099
:105330000549087070470000880A0020B700002067
:10534000A809002054020020B6000020B40000206C
:10535000B500002010B50120F8498870F84890F891
:10536000000688B91020F64981F801060021F448AA
:1053700080F80216012180F8031600F20161FF2077
:10538000FFF796FC012010BD0020FCE710B50020BF
:10539000EA498870EA4890F8000688B91020E84980
:1053A00081F801060021E64880F80216022180F803
:1053B000031600F20161FF20FFF77AFC012010BD07
:1053C0000020FCE710B50446DE480078A0421FD05C
:1053D000DB4890F80006C8B9D8480470D948047072
:1053E0000120D74981F801060121D54880F802162D
:1053F00080F80316D1480178D14880F8041600F2ED
:105400000161FF20FFF754FC012010BD0020FCE7E4
:105410000120FAE710B5CA4890F8000688B91020B4
:10542000C74981F801060021C54880F80216072106
:1054300080F8031600F20161FF20FFF739FC01201C
:1054400010BD0020FCE701B5BD4890F80006C8B9C2
:105450001020BB4981F801060021B94880F80216E6
:10546000052180F803169DF8001080F804169DF8B9
:10547000011080F8051600F20161FF20FFF718FC0B
:10548000012008BD0020FCE710B5AD4890F80006EB
:1054900088B91020AA4981F801060021A84880F89F
:1054A0000216062180F8031600F20161FF20FFF7C3
:1054B000FFFB012010BD0020FCE707B5A04890F8D5
:1054C000000648BB10209E4981F8010602219C4835
:1054D00080F80216032180F803169DF8001080F86A
:1054E00004169DF8011080F805169DF8041080F848
:1054F00006169DF8051080F807169DF8081080F82C
:1055000008169DF8091080F8091600F20161FF20C5
:10551000FFF7CEFB01200EBD0020FCE713B5884845
:1055200090F8000608BB1020854981F80106022189
:10553000834880F80216072180F803169DF80010B2
:1055400080F804169DF8011080F805169DF80410E7
:1055500080F806169DF8051080F8071600F2016124
:10556000FF20FFF7A5FB01201CBD0020FCE713B5C1
:10557000734890F8000608BB1020714981F80106B5
:1055800002216F4880F80216082180F803169DF862
:10559000001080F804169DF8011080F805169DF89B
:1055A000041080F806169DF8051080F8071600F222
:1055B0000161FF20FFF77CFB01201CBD0020FCE700
:1055C00010B55F4890F8000688B901205C4981F861
:1055D000010600215A4880F80216032180F80316BC
:1055E00000F20161FF20FFF763FB012010BD0020E6
:1055F000FCE710B5524890F8000688B901205049E0
:1056000081F8010600214E4880F80216042180F836
:10561000031600F20161FF20FFF74AFB012010BDD5
:105620000020FCE710B5464890F8000688B9012034
:10563000434981F801060021414880F802160521FE
:1056400080F8031600F20161FF20FFF731FB012013
:1056500010BD0020FCE710B5394890F8000688B965
:105660000120374981F801060021354880F80216EB
:10567000022180F8031600F20161FF20FFF718FBFA
:10568000012010BD0020FCE710B52F4C20802F4CCE
:1056900021802F4C22802F4C238010BD13B5284829
:1056A00090F8000608BB1020254981F80106022168
:1056B000234880F80216012180F803169DF8001097
:1056C00080F804169DF8011080F805169DF8041066
:1056D00080F806169DF8051080F8071600F20161A3
:1056E000FF20FFF7E5FA01201CBD0020FCE713B501
:1056F000134890F8000600BB1020114981F80106FC
:1057000002210F4880F8021680F803169DF8001059
:1057100080F804169DF8011080F805169DF8041015
:1057200080F806169DF8051080F8071600F2016152
:10573000FF20FFF7BDFA01201CBD0DE0100A00207C
:1057400054020020C0000020B8000020BA00002051
:10575000BC000020BE0000200020EDE710B5A048EE
:1057600090F8000688B9AA209D4981F80106E12138
:105770009B4880F80216032180F8031600F20161AD
:10578000FF20FFF795FA012010BD0020FCE79FEDF8
:10579000950A954880ED010A9FED940A80ED020A72
:1057A0009FED930A80ED030A00208F49488008800E
:1057B000086148618861B6EE000A8E4880ED010AF2
:1057C000B7EE080A80ED020A9FED8B0A80ED030A0E
:1057D00000208849488008800861486188617047D6
:1057E00030B50246002013B27F4C63800BB2238099
:1057F0002346B3F90030B4F902401B1B7A4C2361F5
:1058000023461B6964691B1B00EE103AB8EEC00A00
:10581000754BD3ED010A20EE200A93ED021AD3ED69
:10582000040AF8EEE00A01EE200A1B696E4C646976
:10583000022505FB14336C4CA469234400EE903A16
:10584000F8EEE00A684B93ED031A01EE200ABDEE74
:10585000C00A10EE103A18B2634B5B69624CA36148
:1058600023461B696361142801DD142004E010F154
:10587000140F01DA6FF0130030BD70B5034600203D
:105880001CB25C4D6C802C462180B4F90040B5F907
:105890000250641B574D2C612C4624696D69641BB2
:1058A00000EE104AB8EEC00A524CD4ED010A20EEC8
:1058B000200A94ED021AD4ED040AF8EEE00A01EE93
:1058C000200A24694B4D6D69022606FB1544494D9B
:1058D000AD692C4400EE904AF8EEE00A454C94ED98
:1058E000031A01EE200ABDEEC00A10EE104A20B2E3
:1058F000404C64693F4DAC612C4624696C61904218
:1059000001DD10B204E05442A04201DA544220B258
:1059100070BD70B52DED048B04460D46281B1E2866
:1059200003DD1920BDEC048B70BD281B10F11E0F88
:1059300002DA6FF01800F5E7281B192813DC281B82
:10594000042810DD281B0BF0FCF941EC190B9FED2E
:105950002B0B53EC102B0BF082F941EC180B0BF0D6
:1059600001FA00B2DEE7281B10F1190F14DB281B27
:1059700010F1040F10DA281B0BF0E3F941EC190BBE
:105980009FED1E0B53EC102B0BF069F941EC180B3B
:105990000BF0E8F900B2C5E70020C3E70246881A19
:1059A000042804DB881A642801DA02207047881A68
:1059B00010F1040F06DC881A10F1640F02DD6FF09D
:1059C0000100F3E7881A642802DB6FF00100EDE7BD
:1059D000881A10F1640F01DC0220E7E70020E5E7F8
:1059E000540200203333F33FD80900206666A63FF7
:1059F0003333333FF40900209A99993E9A99999943
:105A00009999E93F10B504469848B0F94000B0F5BF
:105A1000AF6F0BDD9548B0F94000B0F5C86F05DAFF
:105A20000120934948709349087002E00020904992
:105A300048708E48B0F93E00B0F5966F06DA8C4893
:105A4000407818B901208A49087002E0002088498E
:105A500008708848007801284AD18748C078002813
:105A600053D18248B0F93A0040F26C71884210DD9F
:105A70007E48B0F93C0040F24C41884209DA7B484C
:105A8000B0F93E00884204DA7848B0F94000884214
:105A900017DB7648B0F9400040F26C71884230DD87
:105AA0007248B0F93C0040F24C41884229DA6F4814
:105AB000B0F93E00884224DA6C48B0F93A008842D6
:105AC0001FDA6E480088B0F57A7F12DAD4ED000A4A
:105AD0006A48008800EE100AB8EE400A9FED681A86
