:020000040800F2
:10000000F00500204901000845200008751E000881
:10001000412000082D020008812500080000000092
:100020000000000000000000000000007520000833
:100030003102000800000000492000087720000875
:100040006301000863010008630100086301000800
:1000500063010008630100086301000863010008F0
:1000600063010008630100086301000863010008E0
:1000700063010008630100086301000863010008D0
:1000800063010008630100086301000863010008C0
:1000900063010008630100086301000833020008DF
:1000A00063010008630100086301000863010008A0
:1000B0006301000863010008630100086301000890
:1000C0006301000863010008630100086301000880
:1000D000630100086125000871250008630100081C
:1000E0006301000863010008630100086301000860
:1000F0006301000863010008630100086301000850
:10010000630100086301000863010008630100083F
:10011000630100086301000863010008E92000088A
:10012000630100086301000863010008630100081F
:10013000DFF810D000F042F800480047B929000865
:10014000AFF30080F00500200648804706480047CE
:10015000FEE7FEE7FEE7FEE7FEE7FEE7FEE7FEE777
:10016000FEE7FEE7E520000831010008D2B201E019
:1001700000F8012B491EFBD270470022F6E710B5AC
:1001800013460A4604461946FFF7F0FF204610BD05
:1001900030B50B46014600202022012409E021FA57
:1001A00002F59D4205D303FA02F5491B04FA02F554
:1001B0002844151EA2F10102F1DC30BD064C074DAA
:1001C00006E0E06840F0010394E807009847103427
:1001D000AC42F6D3FFF7B0FF7C2B00089C2B000845
:1001E00010B501240E480078042804D00C4800788B
:1001F0000C49887009E00A48007800EB80000A4941
:10020000097801EB400007498870012405E00549A1
:10021000085D02F0B7F9601CC4B2032CF7DD10BD15
:1002200056000020900000205100002000BFFEE793
:10023000704710B54FF4807000F03EF94FF4007035
:1002400000F03AF910BD72B600BFFEE70146002289
:1002500091F82100022808D00420886300BF002004
:1002600081F8200000BF012070470868006820F076
:100270000E000B6818600868006820F001000B6829
:10028000186091F8403001209840CB6B58600120F5
:1002900081F8210000BF002081F8200000BF104637
:1002A000E2E7000070B50446002594F8210002281A
:1002B00003D00420A0630125C1E02068006820F07D
:1002C0000E00216808602068006820F001002168A5
:1002D00008605C492068884252D95A4978392068B8
:1002E000884201D1012047E056496439206888429C
:1002F00001D1102040E0534950392068884201D193
:10030000801539E04F493C392068884201D180147A
:1003100032E04C4928392068884202D14FF48030BD
:100320002AE0484914392068884202D14FF48010ED
:1003300022E044492068884201D140041CE042493F
:100340002068884201D1012016E03F49143120681D
:10035000884201D110200FE03B49283120688842B3
:1003600001D1801508E038493C312068884201D12C
:10037000801401E04FF480303349091F086051E0D8
:10038000304978392068884201D1012047E02D4961
:1003900064392068884201D1102040E02949503951
:1003A0002068884201D1801539E026493C3920680F
:1003B000884201D1801432E02249283920688842DD
:1003C00002D14FF480302AE01E4914392068884257
:1003D00002D14FF4801022E01A492068884201D1EE
:1003E00040041CE018492068884201D1012016E031
:1003F000154914312068884201D110200FE01249BC
:1004000028312068884201D1801508E00E493C312E
:100410002068884201D1801401E04FF480300949FE
:1004200080394860012084F8210000BF002084F852
:10043000200000BF606B10B12046616B88472846E2
:1004400070BD0000800002400804024010B5044660
:10045000B4F5807F14D1322002F0B8F91548007845
:10046000022803D101201349087006E011480078E2
:10047000012802D100200F490870322002F0A6F9AD
:10048000B4F5007F14D1322002F0A0F909480078B9
:10049000022803D101200749087006E005480078CA
:1004A000012802D1002003490870322002F08EF9A1
:1004B00010BD00005600002010B504460448006836
:1004C000204020B1024804602046FFF7BFFF10BD66
:1004D000140401402DE9F847024600239C467BE1C5
:1004E0004FF0010808FA03F4D1F8008008EA04008C
:1004F000A0427DD1DFF8F4A2D1F80480A8EB0A096C
:10050000D0453AD014DCB8F1030F50D009DCB8F173
:10051000000F31D0B8F1010F1CD0B8F1020F49D152
:1005200020E0B8F1110F18D0B8F1120F42D11EE03F
:10053000B9F5881F25D006DCB9F5803F20D0B9F584
:10054000801F37D11AE0B9F5001F18D0B9F5041F84
:1005500030D117E0D1F80CC02DE0D1F80C8008F1B3
:10056000040C28E0D1F80C8008F1080C23E0D1F845
:100570000C8008F10C0C1EE000BF00BF00BF00BFE4
:1005800000BF00BFD1F80880B8F1000F02D14FF0D2
:10059000040C0BE0D1F80880B8F1010F03D14FF043
:1005A000080C146102E04FF0080C546103E04FF0B6
:1005B000000C00E000BF00BFFF2801D8904601E01A
:1005C00002F104084646FF2802D84FEA830803E0F8
:1005D000A3F108084FEA88084746D6F800804FF094
:1005E0000F0909FA07F928EA09080CFA07F900E0E7
:1005F0007AE048EA0908C6F80080D1F8048008F0DB
:100600008058B8F1805F6FD100BFDFF8E481D8F87F
:10061000188048F00108DFF8D891C9F81880C8465A
:10062000D8F8188008F00108CDF8008000BF00BF9E
:100630004FEAB9384FEA930958F829504FEA8378BE
:100640004FEA18794FF00F0808FA09F825EA08056B
:10065000DFF8A081424502D14FF0000824E0DFF826
:100660009881424502D14FF001081DE0DFF88C81EE
:10067000424502D14FF0020816E0DFF8848142457E
:1006800002D14FF003080FE0DFF87881424502D134
:100690004FF0040808E0DFF87081424502D14FF0C6
:1006A000050801E04FF006084FEA83794FEA19790F
:1006B00008FA09F848EA0505DFF850814FEA93097E
:1006C00048F82950D1F8048008F48018B8F5801F44
:1006D0000BD1DFF83C81D8F8008048EA0008DFF849
:1006E0003091C9F800800AE075E0DFF82481D8F87D
:1006F000008028EA0008DFF81891C9F80080D1F8D6
:10070000048008F40018B8F5001F0ED1DFF800814E
:1007100008F10408D8F8008048EA0008DFF8F090F3
:1007200009F10409C9F800800DE0DFF8E48008F160
:100730000408D8F8008028EA0008DFF8D49009F10E
:100740000409C9F80080D1F8048008F40038B8F52D
:10075000003F0ED1DFF8B880A8F10408D8F8008077
:1007600048EA0008DFF8A890A9F10409C9F8008058
:100770000DE0DFF89C80A8F10408D8F8008028EA92
:100780000008DFF88C90A9F10409C9F80080D1F8BD
:10079000048008F48038B8F5803F0ED1DFF870800F
:1007A000A8F10808D8F8008048EA0008DFF860904F
:1007B000A9F10809C9F800800DE0DFF85480A8F11C
:1007C0000808D8F8008028EA0008DFF84490A9F16A
:1007D0000809C9F800805B1CD1F8008028FA03F8EA
:1007E000B8F1000F7FF47CAEBDE8F887000011106F
:1007F0000010024000080140000C014000100140C0
:100800000014014000180140001C01400800014094
:10081000080401400AB1016101E00B040361704763
:1008200001480068704700006000002070B5044671
:100830000CB9012070BD94F83D0028B9002084F85F
:100840003C00204600F0DAF8242084F83D002068BF
:10085000006820F00100216808602068006840F40A
:100860000040216808602068006820F4004021688A
:10087000086000F09BFA05465C496068884206D82B
:100880005B48854201D2012007E0002005E059487D
:10089000854201D2012000E00020012800D1C9E7F3
:1008A0005548B5FBF0F62068406820F03F00304323
:1008B000216848604D496068884201D8701C07E093
:1008C0004FF4967070434FF47A71B0FBF1F0401C16
:1008D0002168096A21F03F01084321680862434901
:1008E0006068884214D8681E61684900B0FBF1F066
:1008F000401CC0F30B00042801D204203DE0681E18
:1009000061684900B0FBF1F0401CC0F30B0034E01B
:10091000A06838B9681E616801EB4101B0FBF1F0D5
:10092000401C0AE0681E616801EBC10202EB011184
:10093000B0FBF1F0401C40F48040C0F30B0008B95C
:1009400001201AE0A06848B9681E616801EB410106
:10095000B0FBF1F0401CC0F30B000CE0681E6168B6
:1009600001EBC10202EB0111B0FBF1F0401CC0F33E
:100970000B0040F4804040F400402168C9694CF607
:10098000FF72914308432168C861D4E90701084315
:100990002168096821F0C001084321680860D4E992
:1009A000031008432168896848F2FF3291430843E5
:1009B00021688860D4E9050108432168C96821F0ED
:1009C000FF0108432168C8602068006840F001000A
:1009D0002168086000202064202084F83D00002069
:1009E000206384F83E0000BF24E70000A0860100D9
:1009F00080841E0000093D0040420F0010B586B003
:100A00000446002002900390049005901549206848
:100A1000884225D100BF1448806940F0080012497F
:100A200088610846806900F00800019000BF00BF9F
:100A3000C0200290122003900320059002A90B48C9
:100A4000FFF748FD00BF0848C06940F400100649A0
:100A5000C8610846C06900F40010019000BF00BFE3
:100A600006B010BD0054004000100240000C0140D0
:100A70000348006803490978084401490860704741
:100A8000600000206800002010B50848006840F0B1
:100A9000100006490860032000F0A8F80F2000F0BD
:100AA00007F800F02BF8002010BD000000200240E5
:100AB00070B504460E4800784FF47A71B1FBF0F03F
:100AC0000C490968B1FBF0F5284600F0F9FB08B1C4
:100AD000012070BD102C07D200222146501E00F0CC
:100AE00047F80548046001E00120F2E70020F0E744
:100AF000680000206C0000206400002008B500BFE2
:100B00001148806940F001000F49886108468069FA
:100B100000F00100009000BF00BF00BF0846C069A0
:100B200040F08050C8610846C06900F080500090D5
:100B300000BF00BF00BF0549486820F0E06040F0FA
:100B40000070486000BF08BD001002400000014076
:100B500001460846002809DB00F01F0301229A40E5
:100B600043099B0003F1E023C3F8002100BF704755
:100B70002DE9F05F80460D461646002701F01EFD68
:100B8000074639462A46334601F00700C0F1070AF6
:100B9000BAF1040F02D94FF0040A01E0C0F1070ACC
:100BA000D14600F1040ABAF1070F02D24FF0000A51
:100BB00001E0A0F1030AD4464FF0010A0AFA09FA4B
:100BC000AAF1010A0AEA020A0AFA0CFA4FF0010B2A
:100BD0000BFA0CFBABF1010B0BEA030B4AEA0B041B
:100BE0002146404601F0F2FCBDE8F09F00BF00F056
:100BF0000702064B19684FF6FF031940044B0B43DD
:100C000043EA0221014B196000BF70470CED00E080
:100C10000000FA0570B504460D460CB9012070BD00
:100C20005A48006800F00700A8420ED257480068F2
:100C300020F007002843554908600846006800F086
:100C40000700A84201D00120E9E7207800F0020067
:100C500002281DD1207800F00400042805D14C485A
:100C6000406840F4E0604A494860207800F008009D
:100C7000082805D14648406840F46050444948601F
:100C80004348406820F0F000A168084340494860AC
:100C9000207800F0010078B36068012806D13C4854
:100CA000006800F4003090B90120B8E760680228BD
:100CB00006D13748006800F0007040B90120AEE767
:100CC0003348006800F0020008B90120A7E7304867
:100CD000406820F00300616808432D494860FFF731
:100CE0009FFD064609E0FFF79BFD801B41F288311E
:100CF000884202D9032092E707E02548406800F0C7
:100D00000C006168B0EB810FEDD12048006800F065
:100D10000700A8420ED91D48006820F007002843AC
:100D20001A4908600846006800F00700A84201D090
:100D3000012074E7207800F00400042807D114484B
:100D4000406820F4E060E168084311494860207879
:100D500000F00800082808D10D48406820F46050D1
:100D6000216940EAC1000A49486000F03FF808499B
:100D70004968C1F30311074A515CC840064908603D
:100D800006480068FFF794FE002048E70020024074
:100D900000100240622B00086C000020640000205C
:100DA00001480068704700006C00002000B5FFF7A4
:100DB000F7FF04494968C1F30221034A515CC84066
:100DC00000BD000000100240722B000800B5FFF7C4
:100DD000E7FF04494968C1F3C221034A515CC84096
:100DE00000BD000000100240722B000870B5002109
:100DF0000022002400230020134D696801F00C0537
:100E0000F5B1042D02D0082D19D101E00F4819E0E9
:100E10000F4DC1F38346AB5D01F4803555B10A4DEA
:100E20006D68C5F340450B4E725D084D5D43B5FBE3
:100E3000F2F402E0084D03FB05F4204602E000BF97
:100E4000024800BF00BF70BD0010024000127A00CF
:100E5000502B0008602B000800093D00F8B504463F
:100E60000CB90120F8BD207800F00100002878D0EE
:100E7000F848406800F00C0004280CD0F5484068A1
:100E800000F00C00082811D1F248406800F48030CE
:100E9000B0F5803F0AD1EF48006800F40030002828
:100EA0005FD0606800285CD10120DBE700BF60688C
:100EB000B0F5803F06D1E748006840F48030E5494E
:100EC000086028E0606858B9E248006820F4803083
:100ED000E04908600846006820F4802008601AE0B5
:100EE0006068B0F5A02F0BD1DA48006840F480208C
:100EF000D84908600846006840F4803008600AE07D
:100F0000D448006820F48030D24908600846006860
:100F100020F48020086000BF606888B1FFF780FC83
:100F2000054606E0FFF77CFC401B642801D903203E
:100F300098E7C848006800F400300028F2D010E0BC
:100F4000FFF76EFC054606E0FFF76AFC401B6428CD
:100F500001D9032086E7BF48006800F4003000286C
:100F6000F2D1207800F00200022857D1B948406839
:100F700000F00C0050B1B748406800F00C000828A1
:100F800018D1B448406800F4803098B9B14800687E
:100F900000F0020020B12069012801D0012061E7A2
:100FA000AC48006820F0F800616940EAC100A94936
:100FB000086033E02069E8B10120A7490860FFF725
:100FC0002FFC054606E0FFF72BFC401B022801D949
:100FD000032047E79F48006800F002000028F2D095
:100FE0009C48006820F0F800616940EAC100994916
:100FF000086013E0002098490860FFF711FC0546DF
:1010000006E0FFF70DFC401B022801D9032029E769
:101010009048006800F002000028F2D1207800F02B
:10102000080008282DD1A069B8B101208B490860BB
:10103000FFF7F6FB054606E0FFF7F2FB401B022830
:1010400001D903200EE78348406A00F0020000281F
:10105000F2D0012000F0FAFF13E000207F49086081
:10106000FFF7DEFB054606E0FFF7DAFB401B022830
:1010700001D90320F6E67748406A00F00200002814
:10108000F2D1207800F00400042873D100277148C1
:10109000C06900F0805070B900BF6E48C06940F070
:1010A00080506C49C8610846C06900F080500090CB
:1010B00000BF00BF01276A48006800F48070B0B923
:1010C0006748006840F4807065490860FFF7A8FB36
:1010D000054606E0FFF7A4FB401B642801D9032066
:1010E000C0E65F48006800F480700028F2D000BFBE
:1010F000E068012806D15748006A40F001005549D0
:10110000086227E0E06858B95248006A20F0010000
:10111000504908620846006A20F00400086219E09D
:10112000E06805280BD14B48006A40F004004949AB
:1011300008620846006A40F0010008620AE045487B
:10114000006A20F00100434908620846006A20F066
:101150000400086200BFE068A0B1FFF761FB05462C
:1011600009E0FFF75DFB401B41F28831884202D95C
:10117000032077E622E03748006A00F002000028EA
:10118000EFD012E0FFF74CFB054608E0FFF748FB05
:10119000401B41F28831884201D9032062E62D4884
:1011A000006A00F002000028F0D1012F05D1294883
:1011B000C06920F080502749C86100BFE069C8B30A
:1011C0002448406800F00C00082860D0E06902283C
:1011D00048D1002020490866FFF722FB054606E0BB
:1011E000FFF71EFB401B022801D903203AE61948ED
:1011F000006800F000700028F2D1206AB0F5803F4E
:1012000007D11448406820F40030A1680843114910
:101210004860D4E9080108430E49496821F4741173
:1012200008430C49486001200B490866FFF7F8FAAB
:10123000054607E03DE0FFF7F3FA401B022801D91D
:1012400003200FE60348006800F000700028F2D089
:101250002FE00000001002400000424280044242A1
:1012600000700040002014490866FFF7D9FA0546CF
:1012700006E0FFF7D5FA401B022801D90320F1E56B
:101280000E48006800F000700028F2D111E0E0691B
:10129000012800D1E6E50948466806F48031206A55
:1012A000814204D106F47011606A814201D00120AC
:1012B000D8E50020D6E500000000424200100240C0
:1012C00070B504462546681EB0F1807F01D3012029
:1012D0000FE0681E4FF0E02148610F214FF0FF3012
:1012E00001F074F900204FF0E021886107200861C7
:1012F000002070BD7047704730B502460B4600BFF6
:1013000092F83C00012801D1022030BD012082F872
:101310003C0000BF022082F83D001068446810685D
:10132000816824F070041868044310684460144D08
:101330001068A84213D0134D1068A8420FD010684F
:10134000B0F1804F0BD0104D1068A84207D00F4D60
:101350001068A84203D00E4D1068A84205D121F0B4
:1013600080015868014310688160012082F83D00C7
:1013700000BF002082F83C0000BF00BFC5E70000AE
:10138000002C0140003401400004004000080040EF
:10139000000C004010B504460CB9012010BD94F8B3
:1013A0003D0028B9002084F83C00204600F026F8D3
:1013B000022084F83D00211D206800F09DFE0120E0
:1013C00084F8460000BF84F83E0001213F2001550B
:1013D000402001554120015500BF00BF012084F885
:1013E000420043200155442001554520015500BFCE
:1013F000012084F83D000020D0E7000038B5044605
:101400000D492068884215D100BF0C48C06940F0E2
:1014100020000A49C8610846C06900F02000009019
:1014200000BF00BF002201213720FFF7A1FB3720BA
:10143000FFF78EFB38BD0000001400400010024092
:10144000014691F83D00012801D00120704702209B
:1014500081F83D000868C06840F001000B68D86062
:10146000164B0868984213D0154B086898420FD065
:101470000868B0F1804F0BD0124B0868984207D033
:10148000114B0868984203D0104B086898420CD161
:101490000868806800F00702062A0CD00868006817
:1014A00040F001000B68186005E00868006840F033
:1014B00001000B6818600020C8E70000002C014004
:1014C000003401400004004000080040000C0040CF
:1014D000704710B5044620680069C0F34000D8B1D9
:1014E0002068C068C0F34000B0B16FF0020021680E
:1014F0000861012020772068806900F0030018B19E
:101500002046FFF7E5FF05E0204600F0ADF8204655
:1015100000F0ABF80020207720680069C0F380005D
:10152000D8B12068C068C0F38000B0B16FF004008B
:1015300021680861022020772068806900F44070EB
:1015400018B12046FFF7C4FF05E0204600F08CF8F4
:10155000204600F08AF80020207720680069C0F358
:10156000C000D8B12068C068C0F3C000B0B16FF04F
:10157000080021680861042020772068C06900F015
:10158000030018B12046FFF7A3FF05E0204600F056
:101590006BF8204600F069F8002020772068006989
:1015A000C0F30010D8B12068C068C0F30010B0B11B
:1015B0006FF0100021680861082020772068C0695A
:1015C00000F4407018B12046FFF782FF05E0204686
:1015D00000F04AF8204600F048F800202077206804
:1015E000006900F0010058B12068C06800F00100F7
:1015F00030B16FF0010021680861204600F036F834
:1016000020680069C0F3C01058B12068C068C0F3FA
:10161000C01030B16FF08000216808612046FFF7EC
:1016200069FE20680069C0F3801058B12068C06866
:10163000C0F3801030B16FF040002168086120468F
:1016400000F088F820680069C0F3401058B12068A5
:10165000C068C0F3401030B16FF02000216808610D
:101660002046FFF748FE10BD7047704710B504468E
:101670002C4884423ED12C480078401C2A490870EE
:101680002A480078401C2949087029480078192800
:1016900004DB28480088401C26490880264800783A
:1016A000032804D125480088401C2449088020488C
:1016B00000782349097888421CD01D4800781828F2
:1016C00018DC012280211F48FFF7A4F81E4800887B
:1016D000401C1D4908800846008832280ADB00208B
:1016E0000880002280211748FFF794F810480078FE
:1016F000134908700F480088B0F5966F02DB01208F
:10170000124908700D480088B0F57A7F08DB104850
:10171000007828B902200849087001200C49087097
:1017200010BD0000F8000020480000204E000020FE
:101730008900002058000020560000205A00002098
:101740008A000020001001405E0000205C000020A4
:101750005D00002070477047704700002DE9F84F8A
:101760000446206805682068C668206847694FF00D
:101770000009CA4605F00F09B9F1000F0AD105F0BA
:10178000200038B106F0200020B1204600F052FDC4
:10179000BDE8F88FB9F1000F7BD007F0010018B950
:1017A00006F49070002874D005F0010030B106F402
:1017B000807018B1606C40F00100606405F00400B6
:1017C00030B107F0010018B1606C40F002006064B5
:1017D00005F0020030B107F0010018B1606C40F074
:1017E0000400606405F0080048B106F0200010B95C
:1017F00007F0010018B1606C40F008006064606C94
:10180000002845D005F0200028B106F0200010B1D6
:10181000204600F00FFD20684069C0F3801A606C1C
:1018200000F0080010B9BAF1000F2CD0204600F0EB
:10183000BBFC2068406900F0400000B300BF00BF5F
:101840002168143151E8001F21F040002168143153
:1018500041E80002002AF3D100BFE06B50B17748A5
:10186000E16B4863E06BFEF71DFD88B1E06B416BF7
:1018700088470DE02046FFF76FFF09E009E02046AA
:10188000FFF76AFF04E02046FFF766FF0020606470
:101890007EE7206B012877D105F01000002873D077
:1018A00006F010000028FAD000BF00200090206849
:1018B0000068009020684068009000BF00BF20686A
:1018C000406900F0400000285FD0E06B006840688D
:1018D0001FFA80F8B8F1000F55D0A08D404552DDB9
:1018E000A4F82E80E06B8069202843D000BF00BFA1
:1018F00021680C3151E8001F21F4807021680C31FF
:1019000041E80002002AF3D100BF00BF00BF2168F8
:10191000143151E8001F21F001002168143141E821
:101920000002002AF3D100BF00BF00BF21681431BC
:1019300051E8001F21F040002168143141E8000205
:10194000002AF3D100BF202084F842000020206349
:1019500000BF00BF21680C3151E8001F21F01000CA
:1019600021680C3141E80002002AF3D100BFE06B8E
:10197000FEF76CFC02206063A08DE28D801A81B2BC
:101980002046FFF7E8FE03E742E0A08DE18D401A14
:101990001FFA80F8E08DD0B3B8F1000F37D000BF48
:1019A00000BF21680C3151E8001F21F490702168BC
:1019B0000C3141E80002002AF3D100BF00BF00BF94
:1019C0002168143151E8001F21F001002168143111
:1019D00041E80002002AF3D100BF202084F8420031
:1019E0000020206300BF00BF21680C3151E8001FB8
:1019F00021F0100021680C3141E80002002AF3D1E7
:101A000000BF0220606341462046FFF7A4FEBFE608
:101A100005F0800030B106F0800018B1204600F0DB
:101A200025FDB5E605F0400030B106F0400018B1E4
:101A3000204600F0EFFBABE600BFA9E695210008C9
:101A400010B504460CB9012010BDA06900B100E03A
:101A500000BF94F8410028B9002084F840002046D7
:101A600000F02AF8242084F841002068C06820F49F
:101A700000502168C860204600F05AFC20680069C8
:101A800020F49040216808612068406920F02A0015
:101A9000216848612068C06840F400502168C8602F
:101AA00000206064202084F8410084F84200002077
:101AB000606300BFC8E7000010B586B00446002090
:101AC00002900390049005903B492068884237D1EA
:101AD00000BF3A48806940F4804038498861084630
:101AE000806900F48040019000BF00BF00BF08463D
:101AF000806940F0040088610846806900F00400B5
:101B0000019000BF00BF48150290022003900320FF
:101B1000059002A92A48FEF7DDFC4FF48060029090
:101B200000200390049002A92548FEF7D3FC002270
:101B300011462520FFF71CF82520FFF709F839E0AA
:101B400020492068884235D100BF1C48C06940F454
:101B500000301A49C8610846C06900F4003001909D
:101B600000BF00BF00BF0846806940F004008861E4
:101B70000846806900F00400019000BF00BF042007
:101B80000290022003900320059002A90C48FEF762
:101B9000A1FC0820029000200390049002A90848AC
:101BA000FEF798FC002211462620FEF7E1FF2620D2
:101BB000FEF7CEFF06B010BD003801400010024015
:101BC000000801400044004070B504460D4616462A
:101BD00094F8420020280BD105B10EB9012070BD48
:101BE0000020206332462946204600F01FFCF6E71D
:101BF0000220F4E770B504460E492068884209D1F6
:101C00000D480578284600F01DFE01220A490B48C0
:101C1000FFF7DAFF0A492068884209D109480678A7
:101C2000304600F06DF8012206490748FFF7CCFF67
:101C300070BD000000380140540000204001002029
:101C40000044004055000020880100202DE9F84F95
:101C500004460E46174699464FF0000A94F8410094
:101C600020284AD106B117B90120BDE8F88F00201D
:101C70006064212084F84100FEF7D2FD8246A784EB
:101C8000E784A068B0F5805F04D1206910B9002511
:101C9000B04602E035464FF000081BE053460022F4
:101CA00080212046CDF8009000F010FC08B1032000
:101CB000DBE745B9B8F80000C0F3080021684860C8
:101CC00008F1020803E02878216848606D1CE08C68
:101CD000401EE084E08C0028E0D1534600224021E1
:101CE0002046CDF8009000F0F1FB08B10320BCE7DE
:101CF000202084F841000020B7E70220B5E77047B4
:101D000010B501463A4A12786AB9AA290BD10122C4
:101D1000374B1A70374A13781278521C354C2270A0
:101D2000354AD15462E0324A1278012A0DD1BB29DA
:101D30000BD102222E4B1A702E4A13781278521CA5
:101D40002C4C22702C4AD15450E0294A1278022A95
:101D50001CD1284A13781278521C264C2270264A2D
:101D6000D15422461278052A01DACC293ED1032229
:101D70001F4B1A700122214B1A701F4A9278204B78
:101D80001A701D4AD2781F4B1A702FE0184A127829
:101D9000032A1DD1174A1278521E174B9A5CCC2A7F
:101DA00007D10022154B1A70124B1A70104B1A7083
:101DB0001CE000220E4B1A700E4B1A70002004E03B
:101DC00000220D4B1A54421CD0B20628F8DB0DE05D
:101DD0000022074B1A70074B1A70002004E0002203
:101DE000054B1A54421CD0B20628F8DB10BD000087
:101DF0009A00002099000020830000209B00002012
:101E0000560000208C00002070B504460D462A467E
:101E1000214602A000F0C2FB70BD000025733D25E5
:101E200064FFFFFF0000000070B504460D462A461F
:101E3000214602A000F0B2FB70BD0000705B355D72
:101E40002E625B25645D2E76616C3D2564FFFFFF8D
:101E50000000000070B504460D462A46214602A047
:101E600000F09CFB70BD000025733D22257322FF0E
:101E7000FFFF000000BFFEE700B585B00020019025
:101E800002900390049000BF2C48806940F020002D
:101E90002A4988610846806900F02000009000BF50
:101EA00000BF00BF0846806940F004008861084612
:101EB000806900F00400009000BF00BF00BF08462A
:101EC000806940F0100088610846806900F01000C9
:101ED000009000BF00BF00BF0846806940F00800C6
:101EE00088610846806900F00800009000BF00BFCC
:101EF000002280211248FEF78DFC802001900120F5
:101F00000290002003900220049001A90C48FEF7E3
:101F1000E1FA4FF4407001900A48029000200390CB
:101F200001A90748FEF7D6FA002211461720FEF74E
:101F30001FFE1720FEF70CFE05B000BD001002408A
:101F4000001001400000211010B50B480B4908603B
:101F50000B484860002109488160C1604FF480410E
:101F60000161002141618161C1610162FEF75EFC96
:101F700008B1FEF768F910BD00540040A40000202D
:101F8000A08601001CB50020009001900E480F496A
:101F9000086041F61F40486000210C488160C7215D
:101FA000C16000218161FFF7F5F908B1FEF74BF937
:101FB00000200090019069460448FFF79DF908B1A0
:101FC000FEF741F91CBD000000140040F80000209D
:101FD00010B50B480B4908604FF4165048600021BB
:101FE00008488160C16001610C214161002181616B
:101FF000C161FFF725FD08B1FEF725F910BD00000E
:10200000003801404001002010B50B480B49086022
:102010004FF416504860002108488160C16001619A
:102020000C21416100218161C161FFF709FD08B107
:10203000FEF709F910BD00000044004088010020AF
:1020400000BFFEE700BFFEE77047000008B5084983
:102050000968C9084FF47A72B1FBF2F1414300916B
:1020600000BF00BF00994A1E00920029F9D108BDA7
:102070006C000020704710B5FEF7FAFC10BD00B5EB
:102080008FB0282105A8FEF778F814216846FEF7DE
:1020900074F80120059000040690002007900120AC
:1020A000099002200C90C1030D914FF4E0110E91A4
:1020B00005A8FEF7D3FE08B1FEF7C5F80F20009083
:1020C00002200190002002904FF4806003900020D5
:1020D000049002216846FEF79DFD08B1FEF7B3F8B3
:1020E0000FB000BD7047000010B50248FFF7F1F9CE
:1020F00010BD0000F800002010B50268204B984287
:102100000ED0204B98420BD0B0F1804F08D01E4B20
:10211000984205D01D4B984202D01D4B984203D1E6
:1021200022F070024B681A43154B98420ED0154BA3
:1021300098420BD0B0F1804F08D0134B984205D095
:10214000124B984202D0124B984203D122F44072B3
:10215000CB681A4322F080034C6943EA0402026010
:102160008B68C3620B688362054B984202D0054BB3
:10217000984201D10B6903630123436110BD000044
:10218000002C0140003401400004004000080040E1
:10219000000C004070B505466C6A0020E085E084C4
:1021A0002046FFF7D9FA70BD00BF00BF02680C32AD
:1021B00052E8002F22F4907102680C3242E80013BA
:1021C000002BF3D100BF00BF00BF0268143252E8F9
:1021D000002F22F001010268143242E80013002BA4
:1021E000F3D100BF016B01290ED100BF00BF02680F
:1021F0000C3252E8002F22F0100102680C3242E843
:102200000013002BF3D100BF202180F842100021E1
:102210000163704710B504462068C06820F0400094
:102220002168C860202084F841002046FFF767FD40
:10223000002010BDF8B5044694F84200222875D15C
:10224000A068B0F5805F0CD1206950B90025A66A5E
:1022500020684068C0F308003080A06A801CA0623B
:1022600015E0A56A0026A068B0F5805F03D0A068DD
:1022700028B9206918B920684068287004E02068EF
:10228000406800F07F002870A06A401CA062E08DCA
:10229000401E80B2E085002846D12068C06820F04A
:1022A00020002168C8602068C06820F48070216820
:1022B000C8602068406920F0010021684861202042
:1022C00084F8420000206063206B012826D10020A2
:1022D000206300BF00BF21680C3151E8001F21F0CE
:1022E000100021680C3141E80002002AF3D100BF40
:1022F0002068006800F0100010280AD100BF0020FC
:10230000009020680068009020684068009000BF3E
:1023100000BFA18D2046FFF71EFA02E02046FFF71E
:1023200069FC0020F8BD01E00020FBE70220F9E78E
:1023300070B504462168096921F44051E2681143EF
:10234000226811612269A1681143626941EA0205AC
:102350002168C96841F20C62914329432268D16027
:102360002168496921F44071A269114322685161D1
:102370002D4A2168914202D1FEF728FD01E0FEF7C7
:1023800015FD00EBC00101EB001162689200B1FB8A
:10239000F2F100EBC00202EB001263689B00B2FB9B
:1023A000F3F26423B2FBF3F202EBC20303EB02127B
:1023B000A1EB8201322202EB01116422B1FBF2F1A6
:1023C00001F0F00100EBC00202EB001263689B0019
:1023D000B2FBF3F26423B2FBF3F201EB021200EB67
:1023E000C00101EB001163689B00B1FBF3F100EB4E
:1023F000C00303EB00136668B600B3FBF6F3642674
:10240000B3FBF6F303EBC30606EB0313A1EB830167
:10241000322303EB01116423B1FBF3F101F00F014F
:1024200011442268916070BD0038014010B5034628
:1024300099629A85DA8500205864222083F8420048
:10244000186928B11868C06840F480701C68E060A2
:102450001868406940F001001C6860611868C06835
:1024600040F020001C68E060002010BD014691F89B
:102470004100212828D18868B0F5805F0BD1086918
:1024800048B90A6A1088C0F308000B685860086AE7
:10249000801C086205E00B6A581C086218780B68FB
:1024A0005860C88C401E80B2C88458B90868C0689B
:1024B00020F080000B68D8600868C06840F04000D9
:1024C0000B68D860002070470220FCE72DE9F0413E
:1024D00004460D4617469846069E34E0701C88B3A5
:1024E0002EB1FEF79DF9A0EB0800B0422BD900BF3A
:1024F00000BF21680C3151E8001F21F4D070216821
:102500000C3141E80002002AF3D100BF00BF00BF38
:102510002168143151E8001F21F0010021681431B5
:1025200041E80002002AF3D100BF202084F84100D6
:1025300084F8420000BF002084F8400000BF032060
:10254000BDE8F081FFE7206800682840A84201D17B
:10255000012000E00020B842C0D00020F0E70000D9
:1025600010B50248FFF7FAF810BD00004001002046
:1025700010B50248FFF7F2F810BD000088010020F6
:1025800000BFFEE701B54FF47A73012269460248A5
:10259000FFF75CFB08BD0000400100200FB4054BB5
:1025A00010B503A9044A029800F034F810BC5DF895
:1025B00014FB00002D280008A0000020024800683D
:1025C000C0F30220704700000CED00E010B50028B9
:1025D00004DB0A07130E054A135406E00A07140E1B
:1025E000034A00F00F031B1FD45410BD00E400E0A9
:1025F00018ED00E002E008C8121F08C1002AFAD155
:1026000070477047002001E001C1121F002AFBD172
:10261000704700002DE9FF4F8BB09A460F460546E4
:10262000002606E025280BD052460D9990476D1CD8
:10263000761C28780028F5D10FB03046BDE8F08F21
:102640000024A0460122604900E0044315F8013F40
:10265000203B02FA03F00842F7D128782E2817D140
:1026600015F8010F44F004042A280ED06FF02F0251
:102670002878A0F1300109290AD808EB880102EB7B
:10268000410100EB01086D1CF2E757F8048B6D1C4B
:10269000287869283ED006DC0028CDD063280BD0EE
:1026A000642804D136E0732810D075284BD05246E8
:1026B0000D999047761C85E017F8040B8DF8000003
:1026C00000208DF80100E946012003E057F8049B43
:1026D0004FF0FF3061074FF0000401D40AE0641CA2
:1026E00044450DDA8442FADB19F804100029F6D1CA
:1026F00006E0641C8442FCDB19F804100029F8D1C0
:10270000264404E019F8010B52460D999047641EC7
:10271000F8D257E001CF4FF00A0B002802DA40420E
:102720002D2102E0210504D52B218DF82410012153
:1027300003E0E10705D02021F7E70DF1200908911A
:102740000CE00021F9E701CF4FF00A0BF9E75946F9
:10275000FDF71EFD01F1300209F8012D0028F6D128
:10276000ADEB090000F1200B600701D44FF0010828
:10277000D84502DDA8EB0B0000E0002080460024D5
:1027800006E009A85246005D0D999047641C761C2E
:1027900008988442F5DB04E0302052460D999047BA
:1027A000761CB8F10001A8F10108F5DC05E019F884
:1027B000010B52460D999047761CBBF10001ABF11D
:1027C000010BF4DC6D1C34E70928010030B5044628
:1027D000002504E04FF47A7000F004F86D1CA54267
:1027E000F8D330BD70B5034600224FF0E02675697E
:1027F0000D4E366803FB06F44FF0E026B16910E099
:102800004FF0E026B06988420BD0884202D20E1AFF
:10281000324402E02E1A0E4432440146A24200D352
:1028200000E0EDE700BF70BD9C00002013B50C4632
:102830004FF6FF73012269460148FFF707FA1CBDF6
:10284000880100205349097839B9AA2805D151498E
:102850000978491C4F4A11709AE04E4909780129BC
:1028600007D1BB2805D14B490978491C494A117049
:102870008EE048490978022907D1AA2805D145499F
:102880000978491C434A117082E0424909780329BA
:1028900007D1414908703F490978491C3D4A1170E8
:1028A00076E03C490978042907D13C490870394948
:1028B0000978491C374A11706AE0364909780529B8
:1028C00005D134490978491C324A117060E0314918
:1028D0000978062947D12F490978491C2D4A1170DA
:1028E000182801DC2E4908702E4909782C4A1278E4
:1028F000914216D02A49097899B12B4909781729AC
:102900000FDC27490978294A274B1B78D1542649DF
:102910000978491C244A117021490978214A11700B
:1029200036E023490978012932D12249097819BBB7
:102930001B49097801B31A4909781A4A1278914259
:1029400026D01921184A117015490A7816490978B4
:10295000491E164B5A5412490978124A1170012126
:10296000144A117014E00B490978072905D1094967
:102970000978491C074A11700AE0064909780829B4
:1029800003D10021034A117002E00021014A1170B5
:10299000704700009500002088000020890000207A
:1029A0008E0000208B0000208D000020D001002030
:1029B0005C0000208F00002000BFFEF765F8FFF7E5
:1029C0005EFBFFF759FAFFF703FBFFF7DBFAFFF7B0
:1029D000BBFAFFF719FB3948FEF732FD01223849EF
:1029E0003848FFF7F1F8012237493848FFF7ECF88B
:1029F00000BF00BF00BF00BF00BF5EE034480078EA
:102A00000F2804DBFDF7ECFB00203149087031484A
:102A10000078052851DB3048017830A0FFF7F4F941
:102A200032480078D0B131480078401E304A115CFD
:102A300030A0FFF7E9F92D480078401E00EB400078
:102A4000304A811830A0FFF705FA28480078401E68
:102A5000274A115C25480078FFF7E6F92E480078F0
:102A6000012827D12248007E002823D0002008E03A
:102A70001F49097E1E4A125C914201D1274A1070FB
:102A8000401C1728F4DD2548007800EB40001D4A63
:102A9000811823A0FFF7DEF92048007800EB400002
:102AA000184A811822A0FFF7D5F91148017E24A009
:102AB000FFF7AAF90020074908709FE7F8000020F7
:102AC0005400002040010020550000208801002013
:102AD000480000204E0000208800002070616765DB
:102AE000302E6E302E76616C000000008D000020CC
:102AF000D001002070616765312E6E312E76616CD9
:102B0000000000000000002070616765312E743203
:102B10002E747874000000005C000020510000203A
:102B200070616765322E62332E7478740000000085
:102B300070616765342E74302E7478740000000064
:102B400070616765342E6E302E76616C0000000077
:102B500002030405060708090A0B0C0D0E0F1010DE
:102B6000010200000000000000000102030406074B
:102B70000809000000000102030400009C2B00086B
:102B800000000020A4000000F4250008402C0008EC
:102B9000A40000204C050000042600084133004139
:102BA00036004135004132004131004134004236A7
:102BB00000423300423200423500423400423100CC
:102BC0004333004336004335004332004331004372
:102BD000340044360044350044340044310044326B
:102BE00000443300000000000000001E010000004F
:102BF00000000200000000000000000000000000D3
:102C000010000000010000000024F400000000009B
:102C100000000000000000000000000000000000B4
:102C2000000000000A000000000000002C12005B01
:102C30000000000000000000000000000000000094
:0400000508000131BD
:00000001FF
